:020000040800F2
:1000000000C800109D01000829C600087998000862
:1000100025C60008970F0008D1F000080000000076
:1000200000000000000000000000000039D90008B6
:100030005318000800000000B301000839E100086F
:10004000B7010008B7010008B7010008B7010008B0
:10005000B7010008B7010008B7010008B7010008A0
:10006000B7010008B7010008B7010008B701000890
:10007000B7010008B7010008B7010008B701000880
:10008000B7010008B7010008B7010008B701000870
:10009000B7010008B7010008B7010008B701000860
:1000A000B7010008B7010008B7010008B701000850
:1000B000B7010008B7010008B7010008B701000840
:1000C000B7010008B7010008B7010008B701000830
:1000D000B70100088DEC00089DEC0008ADEC0008AD
:1000E000B7010008B7010008B7010008B701000810
:1000F000B7010008B7010008B7010008B701000800
:10010000B701000805D700082DE20008B701000874
:10011000B7010008B7010008B7010008B7010008DF
:10012000B7010008B7010008B7010008511800081E
:10013000B7010008B7010008B7010008B7010008BF
:10014000B7010008B7010008B7010008B7010008AF
:10015000B7010008B7010008B7010008BDEC0008AE
:10016000B7010008B7010008B7010008B70100088F
:10017000B7010008B7010008B7010008B70100087F
:10018000B7010008B7010008DFF80CD000F086FBCB
:10019000004800476D70010800C8001006488047FD
:1001A00006480047FEE7FEE7FEE7FEE7FEE7FEE75C
:1001B000FEE7FEE7FEE7FEE7C5E10008890100086B
:1001C00010B5441A0346944209D28418114403E03E
:1001D00011F8013D04F8013D521EF9D210BD40EA6C
:1001E0000104A40703D009E010C9121F10C3042A98
:1001F000FAD203E011F8014B03F8014B521EF9D279
:1002000010BDD2B201E000F8012B491EFBD27047AD
:100210000022F6E710B513460A4604461946FFF7D2
:10022000F0FF204610BD421E12F8013F002BFBD10B
:1002300011F8013B02F8013B002BF9D1704710B5D2
:10024000044604E00B7800F8013B03B1491C521E40
:10025000F8D2204610BD421C10F8011B0029FBD12A
:10026000801A7047034611F8012B00F8012B002A71
:10027000F9D11846704770B5064615F033FC04688E
:1002800005460A220021304600F03BFA2C6070BD82
:1002900070B5064615F026FC046805460A220021C2
:1002A000304600F02EFA2C6070BD2DE9FE4F8046DE
:1002B00081EA0300C00F0C46009021F0004123F0BA
:1002C0000045B8EB0200A94105D2404621469046C0
:1002D0001C460B46024623F00040104304D1404622
:1002E000214603B0BDE8F08F270DC7F30A00C3F322
:1002F0000A510290401A0190402866DAC3F31300B5
:1003000040F4801B0098924620B10023D2EB030AF0
:1003100063EB0B0B01985946C0F14002504600F0C8
:10032000BFF906460D4650465946019A00F0D7F9E6
:1003300010EB08006141002487EA115284EAE77358
:100340001A433BD0009A3AB3019A012A4FEA075266
:1003500010DC001B61EB02014FF0004202EA075281
:10036000CDE90042001C41F5801132462B4600F0D9
:1003700043FAB6E7001B61EB0201001C41F5801354
:1003800000185B412018A2F5001747EB030140EA73
:10039000D570B6196D4111E06D084FEA360645EA91
:1003A000C0754FEA0752001B61EB0201001C41F5CA
:1003B000801149084FEA30000019514132462B465E
:1003C00003B0BDE8F04F00F00ABA009801224000E7
:1003D0000023D0EB020263EBE073009821464FEA62
:1003E000E074B8EB000061EB0401E9E783F000433F
:1003F0005BE781F0004158E72DE9FE4F81EA0304F5
:1004000004F0004421F0004100944FF0000B23F071
:10041000004350EA010402D052EA030404D1002050
:10042000014603B0BDE8F08FC3F30A54C1F30A5587
:100430002C44A4F2F3340194A0FB0254C1F3130141
:1004400041F48011C3F3130343F4801301FB02440E
:1004500000FB034E840A970A44EA815447EA835713
:10046000A4FB076802958D0A05FB07854FEA932CCC
:1004700004FB0C542705029D4FEA065847EA16373D
:10048000B5EB08056EEB070C870E920E47EA811755
:1004900042EA8312A7FB0201B6EB0B0164EB0004F6
:1004A0002B0D43EA0C335E1844EB1C50DA465146E0
:1004B000E7FB0201C5F313044FEA0B3343EA14537D
:1004C0004FEA0432019C43EA0603A4F10C040294AF
:1004D000009CCDE900B400F08FF9A2E72DE9F04DC2
:1004E00081EA030404F0004B21F0004514464FF06C
:1004F000000A23F0004150EA050220D054EA01022C
:100500001DD0C5F30A570246C5F31303C1F3130008
:10051000C1F30A5640F4801543F48013A7EB060894
:10052000101BD64608F2FD3873EB050002D308F124
:10053000010801E092185B41B8F1000F03DA0020D6
:100540000146BDE8F08D00204FF480110646844638
:100550000EE0171B73EB050705D3121B63EB0503B6
:1005600006434CEA010C49084FEA300092185B41FF
:1005700050EA0107EDD152EA030012D082EA0400EA
:1005800083EA0501084303D100224FF0004308E04D
:10059000101BAB4102D20122002302E06FF00102E6
:1005A00053101AEB06004CEB085110EB0A0041EB1C
:1005B0000B01BDE8F04D00F012B90EB5C10F80EA95
:1005C000E0700844CA07002140F233438DE80E0072
:1005D0000A460B4600F010F903B000BD70B5C1F338
:1005E0000A5201F000450024C1F3130140F2FF3329
:1005F00041F480119A4201DA002070BD40F2334389
:100600009A42A2F2334203DC524200F058F800E072
:1006100090402C43F1D0404270BD00F0004230F0D9
:1006200000400AD0C10D01F56071C0F3160042EA26
:100630000151C2084007114370470020014670472E
:1006400030B5002904DB4FF00044404264EB010167
:10065000002B04DB4FF00044524264EB03038B4257
:1006600008BF824230BD000001F0004330B421F0E9
:10067000004150EA010206D00A0DA2F56072C1F3F2
:100680001301002A02DC30BC00207047440F44EA0A
:10069000C104C100E01830BC00EBC25000F069B8E2
:1006A000202A04DB203A00FA02F100207047914032
:1006B000C2F1200320FA03F3194390407047202A27
:1006C00004DB203A21FA02F00021704721FA02F3FC
:1006D000D040C2F120029140084319467047202AB9
:1006E00006DBCB17203A41FA02F043EAE07306E05A
:1006F00041FA02F3D040C2F120029140084319466A
:1007000070472DE9F04791460F4680460446002683
:1007100014F8015B2DB100F0D3F80068405DC0070C
:10072000F6D12B2D02D02D2D18D0641E4A46394605
:10073000204600F0C9F827B13968A14201D1C7F8B5
:10074000008071054FF002040BD54042002803DD04
:1007500015F0C8F90460A007BDE8F08746F480668C
:10076000E4E70028F8DA15F0BDF904606FF0004006
:10077000F2E70029A8BF7047401C490008BF20F0DD
:100780000100704710B4B0FA80FC00FA0CF050EA97
:10079000010404BF10BC704749B1CCF1200421FA18
:1007A00004F411FA0CF118BF012121430843A3EB13
:1007B0000C01CB1D0106000A002BBEBF002010BC9F
:1007C000704700EBC35010440029A4BF10BC704711
:1007D000401C490008BF20F0010010BC704710B554
:1007E000002B08DA401C41F1000192185B411A43CA
:1007F00001D120F0010010BD2DE9F04D92469B463D
:1008000011B1B1FA81F202E0B0FA80F220329046E2
:10081000FFF746FF04460F4640EA0A0041EA0B0193
:1008200053465A46084303D120463946BDE8F08D69
:10083000114653EA010015D0C8F140025046FFF7B7
:100840003EFF05460E46504659464246FFF728FFF2
:10085000084301D0012000E00020054346EAE0768D
:100860002C4337430A984FEA4453A0EB08004FEA61
:10087000D4240A304FF0000244EA47544FEAD72507
:1008800002D500200146D1E7010510196941DDE9D3
:10089000084500196941BDE8F04DA0E7064C074D39
:1008A00006E0E06840F0010394E807009847103440
:1008B000AC42F6D3FFF76CFCBCC40108FCC40108D1
:1008C0000048704790BC01082DE9F05F824600782F
:1008D000002715468B460AF10104B946302801D09D
:1008E0009DB113E014F8010B0127782803D0582894
:1008F00001D045B10AE00DB1102D07D10027102518
:1009000014F8010B02E0082500E00A250026B04695
:100910000EE005FB080005FB06F1012701EB104680
:100920001FFA80F8B6F5803F00D3B94614F8010BE2
:10093000294600F018F80028EBDABBF1000F05D0CB
:100940000FB1641E00E05446CBF80040B9F1000F2F
:1009500006D015F0C7F802210160C81EBDE8F09F5F
:1009600048EA0640FAE73A2800D2303820F0200260
:10097000412A01D3A2F13700884201D34FF0FF3062
:10098000704770B58D1810F8014B14F0030201D1B7
:1009900010F8012B231106D110F8013B03E010F8E9
:1009A000016B01F8016B521EF9D1B3B110F8012BA4
:1009B00004F00C048A1A0C2C04D0A2EB841203F16C
:1009C000020308E010F8014BA2EB0422F7E712F84B
:1009D000014B01F8014B5B1EF9D5A942D3D300208E
:1009E00070BD0146302905DB392903DCA1F1300057
:1009F000C0B27047412905DB5A2903DCA1F1370059
:100A0000C0B2F6E7202901D12420F2E7242901D140
:100A10002520EEE7252901D12620EAE72A2901D160
:100A20002720E6E72B2901D12820E2E72D2901D153
:100A30002920DEE72E2901D12A20DAE72F2901D14A
:100A40002B20D6E72C20D4E710B5044621465120B0
:100A50000CF06AFD10BD2DE9F04105460C46164626
:100A60001F46DDF81880E9B258200CF05DFD291210
:100A700059200CF059FDE1B25A200CF055FDB8F1A7
:100A8000000F04D121125B200CF04EFD05E0802008
:100A900040EA24215B200CF047FDF9B25C200CF009
:100AA00043FD39125D200CF03FFDF1B25E200CF0E9
:100AB0003BFD31125F200CF037FDBDE8F0810000F6
:100AC00010B501200449087050200CF0EBFC802088
:100AD0000CF00AFD10BD00001A00002010B5002423
:100AE00006E00CF085FB10F0400F00D103E0641C21
:100AF00003488442F5D300BF00200249087010BDAE
:100B0000A08601001A00002038B544680546014659
:100B100020460EF0F5FA002808BF38BD464A28687E
:100B200011280DD006DC0B282AD00E2838D00F282B
:100B300017D07CE0282873D0B0F5107F0AD076E07B
:100B40009268002A08BF38BD294601B02046BDE89A
:100B500030401047526801B029462046BDE8304079
:100B600010472546204604F06FF90090406E046857
:100B7000684604F0EFF9002C1CBF2846A04738BD9A
:100B8000204604F061F90090683004F077F800988E
:100B900003216C3004F098F8684604F0DBF946E075
:100BA000E968486809680D2902D0202918D037E083
:100BB000002835DD4FF4807120460EF05FFB2046A3
:100BC00004F042F9009090F82850684604F0C2F909
:100BD00015F0020F1ED0012120460FF0E8FB19E0AE
:100BE000002817DD25464FF4807120460EF046FBA5
:100BF000284604F029F9009090F82840684604F04F
:100C0000A9F914F0020F08BF38BD012128460FF0E2
:100C1000CEFB38BD2046BDE83840022114F0F6B8BE
:100C2000E86820B920464FF480710EF053FA284648
:100C3000BDE838400EF0BABCC00000202DE9F043FA
:100C400085B04FF04C0CDDE90C56144F0F9C8DE82D
:100C5000E0100EF0F9FB05001BD004F0F5F81022AF
:100C6000214604900EF02EFB0D4C0499B4E8CD13F0
:100C70003431A1E8CD1394E80D10A1E80D1054F81B
:100C80002C0D086004A804F065F920684168284626
:100C9000884705B02846BDE8F0830000090B00082E
:100CA000CC000020F0B5044680688C4989B051F82A
:100CB00020506068002800F00A81052806D0062828
:100CC0007DD0122800F0B48000F004B9E869002853
:100CD00008BF002651D0D5E90012AB688DE80F009F
:100CE00004F110010FC907F04DFE002655F826004B
:100CF00006F0DCFDA169E8690A1A2169014460690E
:100D0000304404F02BFEA169E8690A1A2169014404
:100D1000E069801B04F022FEE169E8690A1A616952
:100D200001442069304404F0DBFEE169E8690A1AF5
:100D300061690144A069801B04F0D2FE761C022E7A
:100D4000D4DBA86806F0B2FDE069E969D4F814C004
:100D5000431A206942186144801C521E04F034FF7B
:100D6000E169E869A2690B1A61690144101A401C23
:100D7000921E04F029FFEE6911E055F8260006F0F6
:100D800095FDE069831BA069821B60698119206958
:100D9000304404F061FE761C022EEEDB0226D5E91B
:100DA0000301CDE90001E169606901444B10A169CB
:100DB0008A1B811C2069304404F0CCFC00E011E067
:100DC000D5E90501CDE90001E0696169831E0144AF
:100DD0000122A06902EB6101821B2069304404F00A
:100DE000B9FC77E0206804F02FF80490206810F038
:100DF00031FB50B1A068002818BF00200AD1049828
:100E0000006F002818BF012004E00498406F0028FC
:100E100018BF0220049901EB8000C56E04A804F0FD
:100E200099F800231A462846216804F055FB51E042
:100E3000206804F009F80490866E002E08BF04A80C
:100E400042D0A168B0F95C70002908BF012103D02D
:100E500003290CBF0221002100EB8101406D0C6CC5
:100E600006F028FD204606F021FD06A804F056FFF6
:100E7000BDF81810A88B0144ADF81810BDF81C106F
:100E8000081AADF81C00BDF81A00801CADF81A0055
:100E9000BDF81E00801EADF81E000498B0F9602059
:100EA000B0F95E1006A806F017F904A804F052F88D
:100EB000022006F03FFD304603F0C6FF3A4606A981
:100EC000059004F036FB05A804F044F802E0206821
:100ED0000FF05CFD09B00020F0BD0000ACB30108CC
:100EE000002808BF7047F8B515460C46064603F0C3
:100EF000ABFF0090032C3CBF00EB840045636846C9
:100F000004F028F830460FF001FAF8BD00294FF040
:100F1000100101D00EF0B2B90EF0DCB8F0B583B01C
:100F20000F4605004FF001041CD003F08DFF019027
:100F3000866E01A8009604F00DF83946684608F060
:100F400037F978B100980024B04208D0284603F061
:100F50007BFF01900099816601A803F0FBFF284602
:100F60000FF0D4F903B02046F0BD002808BF704749
:100F7000F8B515460C46064603F066FF0090032CB4
:100F80003CBF00EB84000564684603F0E3FF304695
:100F90000FF0BCF9F8BD00BFFEE7000070B50446D5
:100FA000E568012D02D0022D0CD100E00AE006A078
:100FB00014F074FD11F0B6F802F096FD0C4811F033
:100FC00013F800BF00BF70BD427574746F6E5F424E
:100FD0006172436F64655F48616E646C655F4D73F9
:100FE000672068617320707265737364200A000063
:100FF000D55B010870B50446E568012D02D0022DCD
:101000000AD100E008E005A014F048FD11F08AF8CC
:101010000C4810F0E9FF00BF00BF70BD427574744A
:101020006F6E5F5172436F64655F48616E646C659B
:101030005F4D7367206861732070726573736420FD
:101040000A0000006D5C010870B50446049D581A42
:101050002E1B7043161B90FBF6F0084470BD000079
:1010600010B54FF480510348FFF7D2F80020024931
:10107000086010BDBCB401204C080010014609B93D
:101080000B487047012901D10A48FAE7022901D12A
:101090000948F6E7032901D10020F2E7042901D12C
:1010A0000020EEE7052901D10448EAE70020E8E73F
:1010B000EC020020140B00203C130020641B0020D5
:1010C00008B525208DF8000002208DF801000020D1
:1010D0008DF8020001208DF8030068460BF0A6FA97
:1010E00026208DF8000001208DF802008DF8030005
:1010F00068460BF09BFA27208DF8000002208DF83F
:10110000020001208DF8030068460BF08FFA47209B
:101110008DF8000005208DF8020001208DF80300F5
:1011200068460BF083FA08BD2DE9F0410020002449
:10113000002235E000212DE001264B1C1FE0B127E5
:101140005743DFF830C467447F5C17F0110F02D1BA
:101150004FF0010C01E04FF0000CB1275743DFF8CE
:1011600014844744FF5C17F0110F01D1012700E000
:101170000027BC4501D1761C00E004E05B1CFE4F5B
:101180003F68BB42DBDB00BF052E01DBB71E3844E6
:10119000591E491CF84E3668361F8E42CCDC521C54
:1011A000F54E3668B242C5DB002235E000212DE065
:1011B00001264B1C1FE0B1274F43DFF8B8C367443B
:1011C000BF5C17F0110F02D14FF0010C01E04FF09E
:1011D000000CB1275F43DFF89C834744BF5C17F0E6
:1011E000110F01D1012700E00027BC4501D1761C79
:1011F00000E004E05B1CE04F3F68BB42DBDB00BF6C
:10120000052E01DBB71E3844591E491CDA4E3668DC
:10121000361F8E42CCDC521CD74E3668B242C5DB3C
:1012200000225EE0002156E0B1265643D14F3E44F5
:10123000765C16F0110F01D1012700E00027561C43
:101240004FF0B10C06FB0CF6DFF828C36644765C61
:1012500016F0110F01D1012600E00026B74239D166
:10126000B1265643C34F3E44765C16F0110F01D1B0
:10127000012700E00027B1265643DFF8F8C2B44446
:101280004E1C1CF8066016F0110F01D1012600E07B
:101290000026B7421ED1B1265643B64F3E44765C77
:1012A00016F0110F01D1012700E00027561C4FF066
:1012B000B10C06FB0CF6DFF8BCC2B4444E1C1CF8A3
:1012C000066016F0110F01D1012600E00026B7429A
:1012D00000D1C01C491CA84E3668761E8E42A3DC85
:1012E000521CA54E3668761E96429BDC0022AFE06B
:1012F0000021A6E041B1B12656439E4F37444E1E11
:10130000BE5D16F0110F7DD1B1265643994F3E4474
:10131000765C16F0110F75D0B126564337444E1C3B
:10132000BE5D16F0110F6DD1B1265643914F374473
:101330008E1CBE5D16F0110F64D0B12656438D4F42
:101340003744CE1CBE5D16F0110F79D0B12656433E
:10135000884F37440E1DBE5D16F0110F70D0B126B8
:101360005643844F37444E1DBE5D16F0110F67D1B2
:10137000B12656437F4F37448E1DBE5D16F0110FC8
:101380005ED07D4E3668F61F8E4208D0B126564399
:10139000784F3744CE1DBE5D16F0110F50D1022993
:1013A00008DBB1265643734F37448E1EBE5D16F0E0
:1013B000110F15D1032908DBB12656436D4F374471
:1013C000CE1EBE5D16F0110F0AD1042937DBB126FF
:1013D0005643684F37440E1FBE5D16F0110F2ED0D6
:1013E000654E3668083E8E4209DDB1265643614F90
:1013F000374401F10806BE5D16F0110F20D15E4E94
:10140000366800E01CE0093E8E4209DDB1265643F5
:10141000584F374401F10906BE5D16F0110F0FD188
:10142000554E36680A3E8E4209DDB1265643514F6D
:10143000374401F10A06BE5D16F0110F00D12830C5
:10144000491C4D4E3668B61F8E423FF753AF521CB3
:10145000494E3668B242FFF64BAF0022B5E000219C
:10146000ACE041B14E1EB1277E43424F3E44B65CD4
:1014700016F0110F7CD1B1264E433E4F3E44B65C70
:1014800016F0110F74D04E1CB1277E43394F3E44E5
:10149000B65C16F0110F6BD18E1CB1277E43354F11
:1014A0003E44B65C16F0110F62D0CE1CB1277E43CD
:1014B000304F3E44B65C16F0110F7ED00E1DB127A2
:1014C0007E432C4F3E44B65C16F0110F75D04E1D76
:1014D000B1277E43274F3E44B65C16F0110F6CD106
:1014E0008E1DB1277E43234F3E44B65C16F0110F8C
:1014F00063D0214E3668F61F8E4208D0CE1DB1272C
:101500007E431C4F3E44B65C16F0110F55D10229A4
:1015100008DB8E1EB1277E43164F3E44B65C16F0A4
:10152000110F15D1032908DBCE1EB1277E43114FC1
:101530003E44B65C16F0110F0AD104293CDB0E1FA5
:10154000B1277E430B4F3E44B65C16F0110F33D0EB
:10155000094E3668083E8E4209DD01F10806B127C2
:101560007E43044F3E44B65C16F0110F25D105E0D2
:1015700023E00000960A0010B4010010354E3668D2
:10158000093E8E4209DD01F10906B1277E43324F43
:101590003E44B65C16F0110F0FD12E4E36680A3E4F
:1015A0008E4209DD01F10A06B1277E432A4F3E44EF
:1015B000B65C16F0110F00D12830491C254E366854
:1015C000B61F8E423FF74DAF521C224E3668B242D4
:1015D000FFF645AF002210E0002109E0B126564396
:1015E0001D4F3E44765C16F0110F00D1641C491C5F
:1015F000184E3668B142F1DB521C164E3668B242C4
:10160000EADB64266643134F3F687F4396FBF7F699
:10161000C6F13206002E09DD642666430D4F3F6891
:101620007F4396FBF7F6C6F1320509E06426664370
:10163000084F3F687F4396FBF7F6C6F132067542C6
:10164000052695FBF6F606EB860600EB4600BDE8A0
:10165000F0810000B4010010960A001030B587B088
:10166000044623480E210C22CDE903140292059072
:1016700020484FF418718C236422CDE9001000211A
:10168000084610F0E9FC09F021FC1B490968A0EBB1
:10169000410014386421C1EB60050020322164222E
:1016A000FA23CDE90032CDE902102B4640F60502BF
:1016B00012A1606810F04AFC09F008FC0E490968A4
:1016C000A0EB41001438C821C1EB60050020322195
:1016D0006422FA23CDE90032CDE902102B4640F610
:1016E000070208A1606810F031FC07B030BD0000AF
:1016F00080B401206400001070A001084452436FC0
:1017000064650000426172436F6465002DE9F04733
:1017100081463FA014F0C2F9484600F0C5FB6FF0C7
:101720007F4006F0C3F84FF4A0734FF48C72002191
:10173000084604F049FA3D480068F021B1EB400F3B
:1017400004DA3BA014F0AAF9BDE8F087002409E010
:10175000364800686043F021B1EB400F00DA03E047
:10176000601CC4B20A2CF3DB00BF601E85B22F4997
:1017700009686943C1F1960000EBD071C1F34F07CE
:101780004FF00A0800243CE0002634E0B12060431A
:101790002E490844805D012815D1002006F086F806
:1017A00006F1010C05FB0C8CACF1010304F1010CFA
:1017B00005FB0C7CACF1010205FB068105FB047006
:1017C00004F002FA15E06FF07F4006F06FF806F1C2
:1017D000010C05FB0C8CACF1010304F1010C05FBC1
:1017E0000C7CACF1010205FB068105FB047004F0E2
:1017F000EBF9701CC6B20D4800688642C6DB601C5F
:10180000C4B20A4800688442BEDB00BF9CE7000007
:10181000444953504C41595F52454E434F44455FF4
:10182000544F5F544654210A00000000B4010010D8
:1018300054686520515220436F6465206973207499
:101840006F6F206C61726765210A0000960A0010B4
:10185000704770472DE9F84F16468046224C1D46CA
:1018600030440F4601EB050900902168496E4A6833
:10187000494690472268A8EB06004946526E8346C7
:10188000526890472068B91908EB0509406E8A46EE
:101890004268484690472268B91B0E46526E484639
:1018A00052689047002D08BFBDE8F88F7F1B216864
:1018B0000098496E4A68394690472268394658462A
:1018C000526E526890472068A8EB05055146406E5D
:1018D000426828469047226831462846526E526830
:1018E00001B0BDE8F04F1047680800102DE9FF4F28
:1018F0002DED108B89B082460F46032008904FF0E3
:10190000FF3901251C98C41B2798FEF7A4FC064646
:101910009FEDFE0AB0EE408A04200790012E06DA01
:10192000401F09B0BDEC108B04B0BDE8F08FFFF78D
:1019300097FBBAF1050F44D2DFE80AF0034457B72A
:10194000FE00279800F07AFA8146701EB11C0F2223
:1019500002FB010094FBF0F5701E02FB010094FBFA
:10196000F0F000EE100AB8EEC00AB0EE408A00EEC9
:10197000105AB8EEC00A38EE400A10EE101A0846A7
:10198000FEF74BFE41EC100BB0EE409AF0EE609A81
:101990009FEDDF0B53EC102B51EC190BFEF750FEB3
:1019A00002D2012D00DD6D1EC5EB0511B01C01FB3F
:1019B0001041701E0C1A204604EBD0714910491FCB
:1019C0000F44CDE1279800F011FC81465F2094FB85
:1019D000F0F5C5EB451000EB8510241A04EBD4712B
:1019E00007EB61070A200790BAE1279800F010FA88
:1019F000814600EE104AB8EEC00A10EE100AFEF75B
:101A00000CFE41EC100BB0EE40AAF0EE60AA9FED88
:101A1000C20B53EC102B51EC1A0BFEF75FFD41EC9F
:101A2000100BB0EE409AF0EE609A51EC190BFEF7F5
:101A30001BFE08EE100A06EB460000EBC600233042
:101A400000EE100AB8EEC00AC8EE000AB0EE608AD6
:101A500018EE100AFEF7E1FD41EC100BB0EE40AAC3
:101A6000F0EE60AA9FEDAC0B53EC102B51EC1A0B6F
:101A7000FEF7C2FC41EC100BB0EE409AF0EE609A1B
:101A800051EC190BFEF7AAFD0546012D00DA0125E0
:101A900006EB460000EBC600233005FB104404EBC8
:101AA000D4714910891C0F445AE1279800F0B7F906
:101AB000279800F0ADF9814600EE104AB8EEC00A52
:101AC00010EE100AFEF7A9FD41EC100BB0EE40AA93
:101AD000F0EE60AA9FED900B53EC102B51EC1A0B1B
:101AE000FEF7FCFC41EC100BB0EE409AF0EE609A71
:101AF00051EC190BFEF7B8FD08EE100A06EB460094
:101B000000EBC600233000EE100AB8EEC00AC8EEA3
:101B1000000AB0EE608A18EE100AFEF77EFD41EC76
:101B2000100BB0EE40AAF0EE60AA9FED7B0B53ECD9
:101B3000102B51EC1A0B00E01CE0FEF75DFC41ECB1
:101B4000100BB0EE409AF0EE609A51EC190BFEF7D4
:101B500045FD0546012D00DA012506EB460000EBA8
:101B6000C600233005FB104404EBD4714910891CD6
:101B70000F44F5E0279800F059F9814600EE104A2D
:101B8000B8EEC00A10EE100AFEF747FD41EC100B4C
:101B9000B0EE40AAF0EE60AA9FED5F0B53EC102B65
:101BA00051EC1A0BFEF79AFC41EC100BB0EE409A88
:101BB000F0EE609A51EC190BFEF756FD08EE100A94
:101BC0003046FEF7FAFC41EC100BB0EE40DAF0EED6
:101BD00060DA9FED530B53EC102B51EC1D0BFEF70D
:101BE0000BFC41EC100BB0EE40CAF0EE60CA9FED6A
:101BF0004E0B53EC102B51EC1C0BFEF756FB41EC3B
:101C0000100BB0EE40AAF0EE60AA18EE100AFEF734
:101C100004FD41EC100BB0EE40BAF0EE60BA53ECAC
:101C20001A2B51EC1B0BFEF759FC41EC100BB0EEDC
:101C3000409AF0EE609A51EC190BFEF715FD08EE94
:101C4000100A18EE100AFEF7E8FC41EC100BB0EE9B
:101C500040AAF0EE60AA9FED300B53EC102B51EC34
:101C60001A0BFEF7C9FB41EC100BB0EE409AF0EEF8
:101C7000609A51EC190BFEF7B1FC0546012D00DA14
:101C800001253046FEF799FC41EC100BB0EE40FA0E
:101C9000F0EE60FA9FED220B53EC102B51EC1F0B72
:101CA000FEF7AAFB41EC100BB0EE40EAF0EE60EA62
:101CB0009FED1D0B53EC102B51EC1E0BFEF7F5FAAC
:101CC00041EC100BB0EE40CAF0EE60CA2846FEF7B9
:101CD00074FC41EC100BB0EE40DAF0EE60DA53EC3D
:101CE0001C2B51EC1D0BFEF787FB41EC100BB0EEEB
:101CF00040AAF0EE60AA2046FEF75FFC41EC100B14
:101D0000B0EE40BAF0EE60BA12E000000000000051
:101D10009A9999999999B93FF27B9BFEECFF5140B2
:101D2000000000000000164000000000008041405C
:101D300053EC1A2B51EC1B0BFEF758FB41EC100B2C
:101D4000B0EE409AF0EE609A51EC190BFEF746FCAB
:101D50000446204604EBD0714910891C0F4400BF93
:101D600000BFB9F1010F02D04FF0FF30D9E5DFF825
:101D70009880264800680690002001906FF07F4010
:101D800000904FF0000B39E098F8000000F00100DF
:101D9000059098F8000010F0020F01D0089800E0BC
:101DA0000120039098F8000010F0040F01D026984D
:101DB00002E007992698401A02900020049015E04E
:101DC000E8B205F0A5FD059818B1019805F06EFD83
:101DD00002E0009805F06AFD3A463846029B1B99DE
:101DE00003F0E6FD2F440498401C0490DDE9031045
:101DF0008842E5DB08F101080BF1010B06988345E9
:101E0000C2DB00BF8DE50000BCB401204C0800100F
:101E100010B50446002120460AF04EFC10BD10B556
:101E20000446012120460AF047FC10BD10B50446C7
:101E3000022120460AF040FC10BD00002DE9F047C9
:101E400007463846FEF707FA0546E81C15F016F96E
:101E500081463A4610A1484613F030FEDFF8408034
:101E6000C246AD1C00260BE019F8060051460AF0E8
:101E7000D9FD044614B90020BDE8F087A246761CBF
:101E8000AE42F1DBA4EB080006490860484614F0B6
:101E9000E1FF0120F0E700002A25732A000000007E
:101EA000BCB401204C0800102DE9F14F8CB001208A
:101EB0000B900A90EC2006904FF0000800260020BE
:101EC0000990C0490860C04908600998002801DDF0
:101ED000099802E00C98FEF7BEF90890089818B926
:101EE00000200DB0BDE8F08F089ADDE90B0107F086
:101EF000FFFB8246BAF1000F01D10020F1E70B98F9
:101F000018B9B248C0F800A00EE00B98824503DC77
:101F1000AE490B98086007E00A9818B1AB48C0F8C2
:101F200000A001E00020DCE7A848006800EB800189
:101F300001EB4010A64901EB4000001DA1490968D2
:101F400030F81170A3480068C0EBC700042801DD19
:101F5000042003E09F480068C0EBC7000790079883
:101F6000002807DD00219B48079A00680BF020FD40
:101F70009849086097490968C81DC11700EB51715D
:101F8000CC100AE09449069808550698EC2801D12F
:101F9000112000E0EC200690641CBC42F2DB8B4870
:101FA000006800EB800101EB4010894901EB400023
:101FB00040888A490860084601688948FEF728F980
:101FC0008248006800EB800101EB4010804901EB82
:101FD00040001A307B49096801EB410130F81100DB
:101FE00005907A48006800EB800101EB40107849C9
:101FF00001EB400032307349096801EB410130F8D0
:1020000011100491DDE9041000EB010B6F4800682A
:1020100000EB800101EB40106D4901EB40001A30EC
:102020006849096801EB410100EB4100B0F80490F8
:102030006648006800EB800101EB4010644901EB49
:10204000400032305F49096801EB410100EB41007B
:102050008088039000240FE0002509E0404608F145
:1020600001085D49085C0BFB05615D4A50546D1C1D
:102070004D45F3DB761C641C05988442ECDB0024A0
:102080001CE0002515E04D4509DA404608F101083D
:102090005149085C0BFB0561514A505408E0404629
:1020A00008F101084C49085C0BFB09414C4A5054AB
:1020B0006D1C03988542E6DB761C641C0498844200
:1020C000DFDB4248006800EB800101EB4010404933
:1020D00001EB40001A303B49096801EB410100EB7C
:1020E00041004088A0EB090002903848006800EBEE
:1020F000800101EB4010364901EB4000323031499C
:10210000096801EB410100EB410041880398081A7E
:1021100001904FF00008002600241FE0992131486B
:10212000FEF776F82C4800EB08014A462D48FEF7EA
:1021300047F849462B48029A07F05AFB002507E06A
:102140002848405D0BFB05713144254A50546D1CF5
:1021500002988542F4DBC844761C641C05988442CE
:10216000DCDB002420E099211E48FEF751F81A48D4
:1021700000EB08011B48039AFEF722F81948019A60
:10218000039907F035FB002507E01648405D0BFB7F
:1021900005713144124A50546D1C01988542F4DB9C
:1021A00003988044761C641C04988442DBDB074857
:1021B0000068112101EB80000B49086001F036FC3A
:1021C00001208EE6C4010010D0010010C8010010EB
:1021D000D8730108B8010010F7840010C001001086
:1021E0009BA7001015B60010B40100102DE9F043B4
:1021F00087B080464046FEF72EF88146B9F10C0FB5
:1022000005DD0C22414601A8FEF719F80DE0414614
:1022100001A8FEF727F803E03EA101A8FEF703F8A6
:1022200001A8FEF718F80C28F6D33B4E3446207868
:10223000401D2070641C2078001D2070641C2078D4
:10224000401D2070641C9DF8040005A90AF074FB71
:1022500007461FB9002007B0BDE8F0839DF80510C0
:1022600020460AF0B5FB0446022517E0A81E05A982
:10227000085C4F2806D101A8415D20460AF0A8FB62
:1022800004460AE0A81E05A9085C452805D101A856
:10229000415D20460AF070FB04466D1C072DE5DB0E
:1022A0002078001D2070641C2078401D2070641C64
:1022B0002078001D2070641C2078401D2070641C54
:1022C0002078001D2070641C072506E001A8415DF0
:1022D00020460AF0DFFB04466D1C0C2DF6DB01A83E
:1022E0000AF0FAFA0546294620460AF0D3FB0446CE
:1022F0002078401D2070641C2078001D2070641C14
:102300002078401D2070641CA01B04490860012037
:10231000A1E7000030000000BCB401204C08001010
:102320002DE9F74F86B0074692460024A04640F6B6
:102330008C31FE48FDF76CFF00200546FC49086023
:102340003EE00798401EA84207DD6A1CB95C785D34
:1023500008F02BF908B103230CE0785D08F0B5F91B
:1023600008B1002306E0785D08F0FCF808B101230D
:1023700000E002230DB9EF480370EE48EC4909680C
:10238000405C984206D0EA480068401CE849086072
:10239000E8490B54E548E6490968405C401CC1B275
:1023A000E248E34A12688154032B08D1E0490968E6
:1023B000405C401CDD49DE4A126888546D1C6D1C6F
:1023C00007988542BDDBDA480068401CD8490860A0
:1023D00061E100200190D748005D20B9D549601C1B
:1023E000085C012808D0D348005D01287ED1D1497E
:1023F000601C085C0028F9D1CC4A115DCD4A105D03
:10240000524607F077F88346C84B621C995CC94B6B
:10241000985C524607F06EF80BEB00010591C3483B
:10242000025D0346601C185C11185246012007F03B
:1024300061F881460599494558DD012C28DB601E6D
:10244000BC49085C022823D1601EB84A125CB74818
:10245000005D11185246022007F04CF88346B34B3A
:10246000621C995CB34B985C524607F043F85844A1
:102470000390601EAD4A115C5246022007F03AF804
:1024800000EB09010398814204DA0020039001E087
:1024900000200390A6480068801EA0422ADDA549BE
:1024A000A01C085C022825D1A04A115DA14A105D3C
:1024B000524607F01FF883469C4A601C125C9B4BF7
:1024C000A01C185C11185246022007F013F858445B
:1024D0000290964AA01C115C5246022007F00AF8AE
:1024E00000EB09010298814206DA00E0D1E0002009
:1024F000029001E000200290039858B1029848B180
:10250000DDE90210884202DA4FF0FF3000E00120DE
:1025100001900AE0039810B14FF0FF3004E00298F8
:1025200008B1012000E0002001900198F0B301986B
:10253000401C1AD1601E7D49085C095D0844C1B287
:10254000601E7A4A1154254609E07A49681C085CE5
:1025500048557649681C095C744841556D1C74489F
:102560000068401EA842F0DC1CE00221714A601C99
:1025700011546E49095C6D4AA01C105C0844C1B23C
:10258000601C1154A51C08E06A49681C085C485589
:102590006649681C085C48556D1C65480068401E0B
:1025A000A842F1DC62480068401E00E002E0604999
:1025B00008606DE05E480068801EA04223DD5D4932
:1025C000A01C085C01281ED15849601C095C574AB0
:1025D000A01C105C0844C1B2601C1154A51C08E08A
:1025E0005449681C085C48555049681C085C4855AB
:1025F0006D1C4F480068401EA842F1DC4C48006842
:10260000401E4B49086001214A4801554748015D79
:102610000246601C105C084411460855651C08E021
:102620004449681C085C48554049681C085C48558A
:102630006D1C3F480068401EA842F1DC3C48006821
:10264000401E3B490860012C22DB601E3949085CB2
:1026500001281DD1601E3549085C095D0844C1B2DE
:10266000601E324A1154254608E03249681C085C55
:1026700048552E49681C085C48556D1C2C4800685C
:10268000401EA842F1DC2A480068401E2849086024
:1026900001E0641C00BF26480068401EA0423FF7CE
:1026A00098AE0024BBE0214A115D224A105D5246DB
:1026B00006F020FF83461D4B621C995C1D4B985C05
:1026C000524606F017FF584405901848025D03462D
:1026D000601C185C11185246022006F00BFF814660
:1026E000012C0ADB601E1349085C022805D1124840
:1026F00010F80A00001DA9EB00090D480068801EB3
:10270000A0420ADD0B49A01C085C022805D10A483A
:1027100010F80A00001DA9EB0009059848457CDD6A
:10272000012C2CDB601E0349085C07E00F9C0010A5
:10273000BC010010839000106486010802281ED19D
:10274000601EDD49085C095D0844C1B2601EDA4ABA
:102750001154254608E0D949681C085C4855D649FB
:10276000681C085C48556D1CD5480068401EA8428E
:10277000F1DCD3480068401ED1490860641ED0488F
:102780000068801EA04223DDCC49A01C085C022802
:102790001ED1C949601C095CC74AA01C105C0844D2
:1027A000C1B2601C1154A51C08E0C449681C085C37
:1027B0004855C149681C085C48556D1CC0480068F4
:1027C000401EA842F1DCBE480068401EBC490860BB
:1027D0000220BA490855B848015D0246601C105CE9
:1027E000084411460855651C08E0B449681C085C9B
:1027F0004855B149681C085C48556D1CB0480068D4
:10280000401EA842F1DCAE480068401EAC4908609A
:10281000012C00DB641E02E0FFE7641C00BFA84837
:102820000068401EA0423FF73EAF0020A549086067
:1028300040F68C31A448FDF7EBFC002528E19F48C9
:10284000405DC8BB042201219E4800680BF0B0F82F
:102850009C4908609D4810F80A209748415D9948B6
:1028600000680BF0A5F897490860002654E09248EC
:10287000405D801EB04220DD08EB0600385C303839
:10288000642110FB01F108EB0600401C385C303875
:1028900000EB800001EB400108EB0600801C385C77
:1028A0003038084404900A228648049900680BF0E6
:1028B0007FF8844908602EE036E07F48405D801E46
:1028C000B04216D108EB0600401C385C303808EBEB
:1028D0000601795C303901EB810100EB4100049085
:1028E00007227848049900680BF062F8754908607F
:1028F00011E07148405D401EB0420CD108EB06006B
:10290000385C3038049004226E48049900680BF05B
:102910004FF86C490860F61C6748405DB042A6DC81
:102920006548405D8044B2E06448405D01284AD17A
:1029300004220221634800680BF03AF861490860FC
:10294000634810F80A205C48415D5E4800680BF05F
:102950002FF85C49086000262DE05748405D401E76
:10296000B04219DD08EB0601785CFEF73AF8C0EBDF
:10297000001000EB400208EB0601491C785CFEF7F2
:1029800030F8104404900B224E48049900680BF074
:102990000FF84C4908600DE008EB0601785CFEF783
:1029A00020F8049006224748049900680BF000F8CC
:1029B00044490860B61C4048405DB042CDDC3E480A
:1029C000405D804463E03D48405D022827D10422F9
:1029D00011463C4800680AF0EBFF3A4908603D4860
:1029E00010F80A203448415D364800680AF0E0FFDC
:1029F0003449086000260AE008EB0600395C08222A
:102A0000304800680AF0D4FF2E490860761C2A4836
:102A1000405DB042F0DC2848405D804437E004224D
:102A20000821284800680AF0C3FF264908602248A8
:102A300010F805B0284810F80A200BEBDB704110A5
:102A4000204800680AF0B4FF1E490860002614E020
:102A500008EB4601491C795C08EB4602BA5C01EBC5
:102A6000022007F03BFE83460D22594615480068B8
:102A70000AF09EFF13490860761C0F49485D00EB81
:102A8000D071B6EB610FE3DB0B48405D80446D1CF9
:102A90000B480068854204DA0A480068401C7FF44D
:102AA000CEAE08480068401C03D0012009B0BDE844
:102AB000F08F0020FAE700000F9C001083900010B8
:102AC000BC010010B8010010F78400105E860108F8
:102AD0006186010864860108678601082DE9F047D0
:102AE000446805468EB00027204602F0ADF90090FC
:102AF000B0F87CA0D0F86890D0F88080D0F88860DA
:102B0000C06D002818BF0768684602F023FA56B166
:102B100071682846884700281CBF0EB0BDE8F087C2
:102B20003668002EF4D12868172802BFC5F80C902B
:102B30000EB0BDE8F08713DC0F2844D00ADC0B2868
:102B400000F04B810D2808BF1AF0080F00F0EE804E
:102B500000F04CB9112814D014286FD000F046B9F9
:102B600026286CD006DC1E286AD0202800F0E880D9
:102B700000F03CB92A2818D0B0F5107F29D000F019
:102B800035B92046EE6802F05FF90190717A0029AC
:102B900004BF317A012905D1B0F87C1041F480716D
:102BA000A0F87C1001A800F0F5B8204602F04CF91E
:102BB0000090E968002912BFC0F88410D0F88400A2
:102BC000E860684678E0002F1CBF2046B84700F058
:102BD0000DB927462046EE6802F036F90190B0F8AC
:102BE0007C4001A802F0B6F9E868002804BF0EB0E6
:102BF000BDE8F087307A20B314F0080F04BF3846E0
:102C00000DF0E8FD38460CF0B3FB14F0100F12BFC6
:102C100014F4807F0EB0BDE8F087002314F0800F1D
:102C20001CBF0EB0BDE8F08775483146B0F90020F2
:102C300038460DF06DFD0EB0BDE8F0870FE018E0EE
:102C400024E0384602F000F90190B0F87C1021F43D
:102C50008071A0F87C1001A802F07CF9EBE705A9CF
:102C6000204600F054FBDDE90612E868016042608E
:102C7000E1E7E8680228DED10C94E8680D9027208F
:102C80000A900AA9A8680EF0B3FDD4E7E868012805
:102C900015D0002CCFD0204602F0D6F80190B0F825
:102CA0007C1011F0080F06D021F00801A0F87C106C
:102CB00020460DF02BFB01A802F04CF9BBE7404683
:102CC0000DF071FB58B140460DF084FD40460DF00B
:102CD00039FA88B1012140460CF0D0FA0CE04846A0
:102CE0000DF0D0FD8046204602F0AEF80090C0F80E
:102CF0008080684602F02EF994B1204602F0A4F8D4
:102D00000290B0F87C1011F0080F06D141F00801D4
:102D1000A0F87C1020460DF0F9FA02A802F01AF98A
:102D2000B8F1000F04BF0020E86084E7E868C068DD
:102D300000281FBF007A002820460DF04BFD55E00B
:102D4000EE684EB3214670680EF05CFB0028274603
:102D5000204622D002F078F80490B0F87C1011F0F0
:102D6000080F06D141F00801A0F87C1038460DF09C
:102D7000CDFA04A802F0EEF8214670680EF02EFBA2
:102D800050B1204602F060F802907168C0F88010DF
:102D90000DF1080002F0DEF828E002F055F804908A
:102DA000B0F87C1011F0080F06D021F00801A0F84F
:102DB0007C1038460DF0AAFA04A802F0CBF82146A0
:102DC00030680EF00BFB88B1204602F03DF802900F
:102DD0003168C0F8801002A8DCE7204602F034F821
:102DE0000090703001F04AFF6846D3E7294620463C
:102DF0000CF086F900281CBF28460CF0D7FB1AE718
:102E0000FC00002070B588B0B0F908400DF10C0E40
:102E10000C9ED0F818C045688EE87010B0F812C04B
:102E20000024CDE90014CDF808C0B0F90C10B0F9B9
:102E30001040B0F90EC0B0F90A00194410442346FE
:102E4000624600F003F808B070BD00002DE9F04FB5
:102E50008BB00C46DDE91416DDE91758DDF868C0C3
:102E600046F480563C4F0CF1600C8DE8C2102146B0
:102E70000CF0EAFA04006BD001F0E6FF302229469C
:102E800004900CF01FFA354F049A07F1080102F183
:102E9000340E91E82B1E8EE82B1ED7E90A01C2E9F9
:102EA0001501199850661698A2F87C000025C2F802
:102EB0008050D566C2F888507868D06504A802F0C2
:102EC00049F805A9204600F022FA254841F282710E
:102ED00003950094CDE90110BDF91E00BDF91A104B
:102EE000BDF91C20401A431CBDF91800121A521CCF
:102EF0000CF0AAFA054678684168204688472046C3
:102F000001F0A2FF0490856604A802F023F842F2C3
:102F10000400064204BF20460CF04AFC204601F0A3
:102F200093FF0090006F0190684602F013F841464D
:102F300001A806F03DF958B1204601F085FF009048
:102F400001990167684602F005F820460DF0DEF9A8
:102F50000BB02046BDE8F08FDD2A0008FC00002001
:102F6000553500082DE9F041044698B0006800F09E
:102F7000BDF9002814BFDB4DDB4D6068152802BF8A
:102F8000A86A18B0BDE8F08112DC0B282AD007DC53
:102F9000002800F09281052800F02C8100F09DB9F6
:102FA0000E2800F07781122800F03B8100F095B9DF
:102FB000162802BFE86918B0BDE8F081172802BFE3
:102FC000286A18B0BDE8F081182802BF686A18B0F6
:102FD000BDE8F0811C2802BF686918B0BDE8F08127
:102FE00000F07BB920680E901C200F90206801F043
:102FF0002BFF0390016D0EA88847064603A801F039
:10300000A9FF022E11DBD5E90001AA680292CDE9E1
:103010000001D4E904023346A16905F0B7FB206939
:103020008719A069A0EB06082CE0286804F03EFC94
:103030002169E8690844421E606902F08FFCA269B8
:10304000E869101A411C606902F088FC6069471C3D
:103050003946206902F0DAFC3946A06902F0D6FC54
:10306000686804F023FC20693946401C02F0CEFC5D
:10307000A0693946401E02F0C9FC2069871CA0697E
:10308000A0F10208286804F011FC42463946606944
:1030900002F064FC686804F009FC60694246394645
:1030A000401C02F05BFC686A02287DDDA86804F021
:1030B000FDFB60696A6A811C1044431E4246384623
:1030C00002F082FD6069022EACBF0644861CE069F6
:1030D000471E286804F0EAFB3A463146206902F0B0
:1030E000FFFC3A463146A06902F0FAFCE069871E0F
:1030F000686804F0DBFB20693A463146401C02F068
:10310000EFFCA0693A463146401E02F0E9FCE8694E
:103110000228DCBF286A022820DDA86A0228C7BF6F
:10312000E1690F1AE069871EA86804F0BFFBE9692E
:10313000022907DD22693B46901C11444A1E314694
:1031400002F042FD286A022808DDA169E8698A1EAA
:10315000081A3B463146401C02F036FD286804F050
:10316000A5FBD4E90620216902F0F8FB686804F0A9
:103170009DFBA069421E2069411CE069401E02F0CF
:10318000EDFBA86A02284BDD21698E1CA1698F1E08
:10319000E169081A441CA1F10208A86804F086FB42
:1031A00043463A46214600E003E0304602F00CFD7B
:1031B00093E0296AB14285DD6069022E00F10208C0
:1031C000ACBF871947462069ACBF3044801C2269D8
:1031D0003B461144A1F10102414602F0F5FCA06911
:1031E000022EACBF821B821EE9693B46401A414653
:1031F000401C65E7208A00B2ADF81800A18A09B228
:10320000ADF81A10228B12B2ADF81C20A38B1BB2A2
:10321000ADF81E30D5E9034CCDE9004C02F09AFA26
:103220005BE0208A298B0844ADF81800A08AADF82D
:103230001A00208B298B401AADF81C00A08BADF82A
:103240001E00206801F000FE0390006FF0B1022024
:1032500004F070FB039991F87C00C0F3C00001EB0F
:103260008000006C04F022FB0398406B04F022FB0A
:103270000398006F01F0E8FD03990A90B1F95A2014
:1032800006A902F056F90AA801F064FE03A801F0AD
:1032900061FE22E0208AADF81800A08AADF81A007D
:1032A000208BADF81C00A08BADF81E00A86804F0C0
:1032B000FDFA06A802F0B4FC0FE0206801F0C4FD9E
:1032C0000390B0F85A1041F00C01A0F85A1003A86E
:1032D00001F040FE20680DF059FB18B00020BDE859
:1032E000F0810000580200208402002038B500243C
:1032F00058B101F0A9FD009090F87C0010F0080F83
:1033000018BF0124684601F025FE204638BD2DE98E
:10331000F04F00278DB00C468146BA4601F094FD6F
:103320000190C06D0121856848462A689047804613
:103330002A6803214846904707902A680221484698
:10334000904706902A680021484690470646019813
:103350000DF0AAFE059001980DF0ADFE8346019890
:1033600090F8321001F02001002918BFB0F958A0E0
:103370004FF0000506D0B0F954501DB9406B02F073
:1033800007FD851C0198C06E10B10CF097FC074634
:1033900025806780A4F8048007990598401A06EBF9
:1033A0000A01401E294420813944E1800699ABEB93
:1033B0000101491E6181A4F80C8020827019E68108
:1033C000401E608201A801F0C5FDB4F90C70B4F98B
:1033D00010604D46484601F037FD0690C16DD0F8AB
:1033E000008006A8D1F8089001F0B4FDD9F80020BB
:1033F000002128469047814628460CF0D9FB05005D
:1034000024D001F021FD0790B0F900200FFA88F1D7
:10341000B0F90430521A5B1AB0F90210A1EB28413E
:1034200049450BD190F8280010F0800F03D0964248
:10343000A8BF561E02E09F42D8BF5F1C07A801F03C
:1034400089FD28460CF0F2FB0500DAD1A78126821F
:103450000DB0BDE8F08F10B50146002091F8322084
:1034600012F0200F08BF10BDB1F95400002818BF9A
:1034700010BD486B02F08CFC801C10BD70B58AB08A
:103480000E46044601F0E0FC0990C06D856809A86D
:1034900001F060FD0094002E08BF18200BD0012E13
:1034A00008BF162007D0022E08BF152003D0032E18
:1034B00008BF172000D101906968684688470AB0A4
:1034C00070BD2DE9F04383B017468846814601F070
:1034D000BBFC0090C16D056868468C6801F03AFD40
:1034E0002268002148469047064648460CF060FB9B
:1034F000040004BF03B0BDE8F08301F0A5FC019017
:10350000B0F900102AB2B0F90430891A9A1AB0F949
:103510000230A3EB2543B34211D190F8280010F0FC
:10352000800F05D038688842A4BF481E386006E086
:10353000D8F800009042DCBF501CC8F8000001A879
:1035400001F008FD20460CF071FB0400D5D103B05A
:10355000BDE8F0832DE9F0430446406889B0054694
:103560000CF06CFB814601F06FFC0290D0F880807B
:10357000876C466E02A801F0EDFC2068172862D027
:1035800008DC0E2850D00F2816D0142818BF152894
:1035900059D052E01E2829D01F283ED0222802BF31
:1035A000E76009B0BDE8F083312801BF0020E0608A
:1035B00009B0BDE8F08340E06FF07040874204D06E
:1035C000384607F005FF01F02FFE002E04BF09B0BA
:1035D000BDE8F083D4E902122068CDE90405CDE905
:1035E000061204A8B04709B0BDE8F083E0680028DF
:1035F00004BF09B0BDE8F083B8F1000F18BFA845BB
:1036000005D040460DF0E6F809B0BDE8F083284645
:103610000DF038F909B0BDE8F083214648460BF0BB
:103620006FFD09B0BDE8F083E0684168002904DD62
:1036300000680928EBD00A280BD0002E1CBF2046BA
:10364000C4F80490CED120460BF0B0FF09B0BDE81D
:10365000F08328460DF064F909B0BDE8F08300005E
:1036600051B14FF0204252F8202042F001024FF0B9
:10367000204343F8202009E04FF0204252F8202058
:10368000034B1A404FF0204343F8202070470000BE
:10369000FEFF0F0070B50021002200234FF02045EF
:1036A000046855F82410434C2140D0E901452C43CF
:1036B000C5682C4305692C4345692C4385692C4317
:1036C000C5692C43056A2C43456A2C43856A2C4303
:1036D000C56A2C43056B2C4321434FF020450468F9
:1036E00045F824108468082C09D1046855F8244052
:1036F00044F040044FF02046056846F82540046831
:10370000641C4FF0204555F8242002F04042446BE1
:103710002468456B6D6844EA0514456BAD6844EA5E
:103720000524456BAD8944EA0544456B2D8A44EA7E
:103730000554456B2D7D44EA0564456BAD692C430A
:1037400022430468641C4FF0204545F82420C46AD5
:10375000B4F5804F24D1046805EB8404D4F8043117
:1037600003F04043846B2468856B6D6844EA05145C
:10377000856BAD6844EA0524856B2D8A44EA0554BF
:10378000856B2D7D44EA0564856BAD692C4323432D
:103790004FF02045046805EB8404C4F8043108E0C8
:1037A0006FF070444FF02046056806EB8505C5F8BC
:1037B000044170BD8000F7FF1CB50121080209F02B
:1037C000C5FE00208DF804008DF806008DF8070076
:1037D00002208DF80500082000906946044800F09A
:1037E0000DFF002003498870012048701CBD0000B7
:1037F000002002408C0A0010FEB56048407800B9F5
:10380000FEBD00F0C1F800B9FAE7012269460220C6
:1038100000F0D6F89DF8000010F0070F0CD15848C2
:103820000078012807D100205549087055490872D1
:10383000084603F099FCE3E709226946002000F0FE
:10384000BFF8002447E004EB44014900491D1DF87E
:10385000011008110F2800DB3FE004EB4401490090
:10386000091D1DF8012004EB44014900C91C1DF885
:10387000011001F00F0142EA0121404A121D22F815
:10388000141004EB44014900891D1DF8012004EBCC
:1038900044014900491D1DF8011001F00F0142EAE1
:1038A0000121364A921D22F8141004EB440149000C
:1038B000C91C1DF801108A11304909310A5504EB61
:1038C00044014900491D1DF801100A112B49083116
:1038D0000A55601CC4B2012CB5DB00BF2748007834
:1038E000552803D025480078A3280DD12348C58842
:1038F0008688B5F5F07F01DB40F2DF15B6F5887FED
:1039000021DB40F20F161EE01C4800780A280DD17A
:103910001A488588C688B5F5487F01DB40F21F3517
:10392000B6F5F07F0FDB40F2DF160CE01348858818
:10393000C688B5F5487F01DB40F21F35B6F5F07F4C
:1039400001DB40F2DF160E48007860B901200C4917
:1039500008700C480560466001200A490872084654
:1039600003F002FC08E007480560466001200549B5
:103970000872084603F0F8FB00BF41E78C0A00100C
:103980003E000010442400200448006910F0080F95
:1039900001D1012070470020FCE700000020024018
:1039A00008B501226946A32000F00AF89DF800003E
:1039B000024908709DF8000008BD00008C0A001044
:1039C0002DE9F04106460D46174613F007FB70201F
:1039D00013F0DAFA13F02CFBF0B213F0D5FA13F06F
:1039E00027FB13F0FBFA712013F0CEFA13F020FB43
:1039F000002406E013F0A6FA285513F053FA601CD1
:103A0000C4B2781EA042F5DC13F09CFA285513F0DE
:103A100085FA13F0FBFABDE8F081000002488078D7
:103A2000401C0149887070478C0A00102DE9F04154
:103A300047F661212948FCF7EBFB0AF005F909F08C
:103A4000F1FF27480068401C1FD12549086008463F
:103A500000680AF0E1F9224800680AF057F8FDF71B
:103A600063FB074601240EE020460AF0D5F9204604
:103A70000AF04CF8FDF758FB0646BE4202DA37461C
:103A800017480460641C072CEEDD154800680AF036
:103A9000C3F9134800680AF039F8002417E000253C
:103AA00010E0B12060430D490844405D10F0110F53
:103AB00001D0012100E00021B1206043074A1044F9
:103AC00041556D1C074800688542EADB641C0548C7
:103AD00000688442E3DBBDE8F0810000960A001034
:103AE000D0010010B4010010704700002DE9F04F24
:103AF00080460F4640F2C32050434FF47A7190FB4A
:103B0000F1F085B0401C009002FB02F002EBD27194
:103B100000EB610002901446002339464046FDF751
:103B200099FE009801260128AEBF494D05B0BDE8B9
:103B3000F08F00BF06FB06F004FB040102988142EF
:103B40003FDD08EB06000390296807EB0409496E86
:103B50004A6849469047A8EB060001902A68494602
:103B6000526E52689047296807EB060B08EB040079
:103B7000496E81464A68594690472A68B91B8A4669
:103B8000526E484652689047D4B12A68391B89461C
:103B9000526E0398526890472A6849460198526EBF
:103BA000526890472868A8EB04095946406E42685D
:103BB000484690472A6851464846526E5268904798
:103BC000641E08EB060003902A6839198946526E74
:103BD00052689047A8EB060001902A684946526E49
:103BE00052689047296807EB060B08EB0400496E02
:103BF00081464A68594690472A68B91B8A46526EE0
:103C0000484652689047D4B12A68391B8946526E9B
:103C10000398526890472A6849460198526E526844
:103C200090472868A8EB04095946406E4268484608
:103C300090472A6851464846526E5268904700980D
:103C4000761C86427FF776AF05B0BDE8F08F0000A6
:103C5000680800102DE9F84F0F46DDF82890064659
:103C6000941BA3EB0708D9F800504FF0000A54EA60
:103C7000080063D0002CD4BF60422046B8F1000F8A
:103C8000CCBF4146C8F1000188420ADA20464446CA
:103C9000804630463E46074610461A4603464FF0D9
:103CA000010A002CCCBF20466042A04208BF012080
:103CB00008D03046164602466442C8F100081F4646
:103CC0004FF0FF300090C448C449B8F1000FD0F85D
:103CD00000C01CBF04EBD4724FEA620BB8BFCBF13B
:103CE000000B30D09CF81A20002A00F0FA80009ACD
:103CF000002ABCBF2A19C9F800200025002CC0F2F8
:103D0000458100BF08FB05B090FBF4F0C219D9F85B
:103D1000001000980844B049C9F8000009688B7E7B
:103D2000012B00F00081022B00F00781032B00F033
:103D30000D81042B00F03A8100F019B93046BDE83E
:103D4000F84F00F08DBABAF1000F62D09CF81AC09B
:103D5000BCF1000F14D04FF00008002CA4BF8A461D
:103D6000834640DBDBF8001028466D1C8A7E012A62
:103D70000CD0022A14D0032A1BD0042A35D027E005
:103D800031463846BDE8F84F06F03EBF801DC217E9
:103D900000EB127222F00F02801A0C281FDB17E0D2
:103DA000C21700EB927222F00302801A022816DB7F
:103DB0000EE08AFB0032D310A3EBE272524202EB18
:103DC000820200EB82000C2809DB1038022806D39F
:103DD000496E06EB08004A6801463846904708F1EC
:103DE0000108A045BEDD681EDCE07D4A82FB003292
:103DF0009310A3EBE272A2EB820200EBC2000C284C
:103E0000EDDBA0F11002022A24BF14380228E6D309
:103E1000DEE79CF81A80B8F1000F14D04FF00008CC
:103E2000002CA4BF8A46834642DBDBF800102846FC
:103E30006D1C8A7E012A0FD0022A17D0032A1ED0B9
:103E4000042A3AD02AE0DCF864003946036801B05D
:103E50003046BDE8F04F1847801DC21700EB1272C4
:103E600022F00F02801A0C281EDB17E0C21700EBAD
:103E7000927222F00302801A022815DB0EE08AFB00
:103E80000032D310A3EBE272524202EB820200EB4B
:103E900082000C2808DB1038022805D3496E06EB97
:103EA00008004A683946904708F10108A045BCDD82
:103EB000681EC9F80000BDE8F88F494A82FB00324D
:103EC0009310A3EBE272A2EB820200EBC2000C287B
:103ED000EADBA0F11002022A24BF14380228E3D33F
:103EE000DCE70025002CACBF8146BDE8F88F00BFA1
:103EF00008FB05B090FBF4F03844BAF1000F0AD08B
:103F0000D9F800207119526E526890476D1CA54275
:103F1000EEDDBDE8F88FD9F800107319496E4A68D4
:103F200001461846F1E7801DC31700EB137323F019
:103F30000F03C01A0C2825DB19E0C31700EB93739D
:103F400023F00303C01A02281CDB10E0234B83FB81
:103F500000C34FEAE30CACEBE3735B4203EB830378
:103F600000EB83000C280DDB103802280AD3496EC1
:103F7000BAF1000F06EB05004B680EBF1146014673
:103F8000104698476D1CA5427FF7BCAE00980028EC
:103F900004DAD9F800002044C9F80000D9F800106C
:103FA0000098081AC9F80000BDE8F88F0C4B83FB95
:103FB00000C34FEAA30CACEBE373A3EB830300EB6A
:103FC000C3000C28DEDBA0F11003022B24BF143841
:103FD0000228D7D3CBE70000680800106766666642
:103FE000ABAAAA2A2DE9F047DFF86892804684B090
:103FF000D9F800000F460C99007E1D461646012890
:1040000000F0CE80A8EB060C7C1B5CEA040104BF28
:1040100004B0BDE8F087421E0021BCF1000FBCBF18
:104020000121CCF1000C002CBCBF41F00201644224
:10403000644504DD20466446844641F00401A00244
:104040000CEBDC7300EB630090FBFCF08010824C07
:104050004FEA201C00F00F0034F81C30C0F11000B3
:1040600013FB00F3102807D004EB4C0CC0F1100038
:10407000BCF802C01CFB003303F10800C31700EBBF
:104080001370001111F0040F18BFC0F5806011F01B
:10409000010F18BFC0F5006011F0020F18BFC0F586
:1040A000805000F5806100F50060C0F30B004FF018
:1040B000000AB0F5006FC4BF4FF0010AA0F5006020
:1040C000B0F5806FC8BFC0F500604FEAA01C634B1D
:1040D00000F03F00C0F1400033F81C40444340284A
:1040E00018BFBCF1100F07DA03EB4C0CC0F1400015
:1040F000BCF802C00CFB004404F120008009BAF1B6
:10410000000F18BF404200FB02FC0024C1F30B006B
:10411000B0F5006FC4BF0124A0F50060B0F5806F5A
:10412000C8BFC0F50060811100F03F00C0F1400041
:1041300033F811A040280AFB00FA18BF102906DA4C
:1041400003EB4101C0F14000498801FB00AA0AF1DC
:1041500020008009002C18BF404200FB02F1BCF196
:10416000000FB4BFCCF500700CF500704FEAA02032
:10417000B8BF40420029BDBFC1F500718912C1F12D
:10418000000C01F50071A8BF4FEAA12C00280FDD3B
:10419000411C01EBD171491000EBD07042100EE0D0
:1041A000009139464046FFF755FD04B0BDE8F08761
:1041B00000EBD071401E491000EBD0704210BCF1F2
:1041C000000FC6BF0CF1010000EBD0700CEBDC70EF
:1041D0004FEA6000CEBF0CEBDC73ACF1010303EBE4
:1041E000D3735B1008EB010CADF800C007EB000CBB
:1041F000ADF802C0A8EB020CB21AADF804C0ADF8DD
:1042000008203144A7EB030CEA1AADF80C1028443F
:10421000ADF80A20ADF80E000023ADF806C01A462E
:104220000421684600F08EF8D9F80020404639464F
:10423000527E002A08BF00F013F83046D9F800205B
:104240002946527E002A08BF00F00AF804B0BDE8F3
:10425000F0870000680800108E8C01086C8C010843
:10426000064A13681A7E012A05D0521E02EBD2724A
:10427000521000F005B85A6E5268104768080010D6
:104280002DE9F84F06460F4640F2C32050434FF445
:104290007A7190FBF1F000F1010A02FB02F002EBEF
:1042A000D271DFF89C8000EB61000090D8F800101C
:1042B00014463244496E301B0B6839469847012535
:1042C000BAF1010FB8BFBDE8F88F00BF05FB05F0DC
:1042D00004FB0400009988421ADD544517DDD8F824
:1042E000003006EB050BA6EB05095B6EABF1010296
:1042F00039191B6809F101009847D8F80030ABF173
:104300000102391B5B6E09F101001B689847641EAE
:10431000D8F80030321979195B6E301B93461B6850
:1043200081469847D8F800305A46791B5B6E48465C
:104330001B6898476D1CAA45C8DABDE8F88F0000D5
:10434000680800102DE9FF4F83B0074643F6FF745D
:10435000C4F1000090460E1E0090C4BFB91C324646
:104360000DDD00BFB1F90000A042D8BF0446009B9C
:104370009842D8BF1846091D0090521EF2D18C49B0
:104380000868406978B1B0F90630069A9B1A009A1D
:104390009342C0F2018100BFB0F90230069A9A1A26
:1043A000A24200F3FF8000988442D2BFA6F1010927
:1043B00007B0BDE8F08F00207E490546002E08605A
:1043C000C4BF069804EB000A7EDD4D45B4BF05F17D
:1043D000010C4FF0000C07EB850207EB8C01B2F9E2
:1043E0000200B1F90230A04253D1A34213D137F9F0
:1043F0002C2037F9250002EB08036D4A4044514652
:1044000012689842526ED2F800C0B2BF1A460246F5
:104410001846E04783E000222946B9F1000F0CDD81
:10442000002914BF491E711E07EB8100B0F902007C
:10443000A04203D1521C4A45F2DB2046A0426ED076
:10444000001B37F925101A1B90EA020F09D4584AAD
:1044500001EB080051461268526E136802469847F5
:104460005DE0DFF850B1DBF800C0BCF10C0F56DAAC
:104470005FEA0C0018BF504A4AD000BF02EB40036D
:1044800033F9023C8B4243DB22F81030401EF5D159
:104490003EE0A34243D0A8BF844203DAA042A8BFB3
:1044A0009C423CDB98424DDC8446A042DFBF18466C
:1044B0008442B2F90030B1F9001030DCCA1AA4EB22
:1044C0000C015143002900E02DE0A0EB0C02CEBF0F
:1044D00001EB6201A1EB6201491CA0EB0C0091FB16
:1044E000F0F0DFF8D0B0C118DBF800C0BCF10C0F61
:1044F00015DA5FEA0C0018BF2F4A09D002EB40031F
:1045000033F9023C8B4203DB22F81030401EF5D118
:10451000294A22F810100CF10100CBF800006D1CA4
:10452000B542FFF652AF0698224920440190086830
:104530004FF0000B5D460028C4BF1F48B0F900A033
:1045400022DD19E09C46A342DEBF8442B1F900306F
:10455000B2F90010B2DDE2E71748BBF1000F30F905
:1045600015A009D008EB0100114908EB0A020968FF
:10457000496E0B68019998470E486D1C8BF0010B32
:1045800000685146A842E7DC0098641C84427FF72B
:1045900012AF07B0BDE8F08FB0F90630069A9A1A4C
:1045A0000092F9E6B0F902200698141AFBE6000022
:1045B00068080010D401002020B7001010B50020BA
:1045C00003F072F96FF07F4003F070F9012003F0FF
:1045D0009FF9002003F0A4F9002003F0ABF90020BC
:1045E00003F066F90448006803F064F9BDE8104080
:1045F000002003F06BB9000064080010F0B50A4613
:1046000000210023002400BF3DE0012505FA01F34D
:10461000156805EA03049C4234D105684F0003265F
:10462000BE40B543056015794E00B5400668354378
:1046300005601579012D02D01579022D16D18568F6
:104640004F000326BE40B543856055794E00B54006
:10465000866835438560456801268E40B5434560D0
:10466000456896798E40B6B235434560C5684F00BF
:104670000326BE40B543C560D5794E00B540C66837
:104680003543C560491C1029BFD3F0BDF0B50023E8
:1046900000244D07ED0E02FA05F3CE1000F12005BF
:1046A00055F826504E07F70E0F26BE40B543CF10E3
:1046B00000F1200646F82750CE1000F1200555F8ED
:1046C000265045EA0304CE1000F1200545F82640A7
:1046D000F0BD0246002013690B4201D0012000E02A
:1046E000002070470AB1018300E041837047000059
:1046F00010B50020054948706A22054940F2A260C1
:1047000000F0A2F801200149087010BD5C240020CF
:104710002E0000207CB50122694640F2217000F095
:1047200059F89DF8000010F0010F0CD126480078D0
:10473000012807D10020244908702449087208463E
:1047400002F012FD7CBD05220DF1010140F2227044
:1047500000F040F89DF800001D4988709DF80100A8
:10476000C8709DF803009DF8021000EB0120184965
:1047700088809DF805009DF8041000EB0120144985
:10478000C8800846C488808840F2DF11081A85B2C4
:104790000D48007860B901200B4908700B4804608F
:1047A0004560012009490872084602F0DDFC08E076
:1047B000064804604560012004490872084602F07A
:1047C000D3FC00BFBEE70000980000204424002076
:1047D0005C2400202DE9F04105460E46174612F0F4
:1047E000FDFBBA2012F0D0FB12F022FC281212F0CE
:1047F000CBFB12F01DFCE8B212F0C6FB12F018FC65
:1048000012F0ECFBBB2012F0BFFB12F011FC0024F5
:1048100006E012F097FB305512F044FB601CC4B266
:10482000781EA042F5DC12F08DFB305512F076FBBD
:1048300012F0ECFBBDE8F08102484078401C0149D1
:10484000487070475C2400202DE9F04104460E4674
:10485000174612F0C3FBBA2012F096FB12F0E8FBE9
:10486000201212F091FB12F0E3FBE0B212F08CFB8D
:1048700012F0DEFB002506E0705D12F085FB12F001
:10488000D7FB681CC5B2BD42F6DB12F0BFFBBDE82A
:10489000F08100002DE9F04F4B4989B00968B1F96A
:1048A00022200692D1F81CC0B1F92470DCF81C401B
:1048B000A28982429CBFE389984205D8A0EB0209F5
:1048C0004FF0FF38266812E0D4E90162002A71D067
:1048D000138883429CBF5588A8426BD8C01A52687F
:1048E00080B202EB8000B0F90090B0F90280B9F11B
:1048F000FF3F5FD09CF81800A27C10FB02FB94F8ED
:1049000010A00790B1F92A50284606F0C1FDC0B2A8
:1049100008902D4809FB0B620068A37C4FF0010949
:10492000816BCDE90293CDE90421C0695246C17E75
:10493000807ECDE90001DDE90603394605F0BCFFC4
:10494000B8F1FF3F18D045F0020006F0A1FD1E4867
:10495000A37C08FB0B620068816BCDE90293CDE973
:104960000421C0695246C17E807ECDE90001DDE9A7
:104970000603394605F0A0FF134E3068C069417E3A
:10498000007E814213D9022D11D085F0040006F07B
:104990007FFD3068C069017EC27E11FB0271427EDC
:1049A000D319827E06981AFB020206F09BF908983A
:1049B00006F06EFD0448627C0068418C114441841D
:1049C00009B0BDE8F08F0000680800100448002915
:1049D0000068C069C0691CBF027C0A60407C7047E7
:1049E00068080010022008807047C06982898A42E6
:1049F0009CBFC289914210D9806880B102888A42E6
:104A00009CBF438899420AD8406800EB8100A0EB24
:104A10008200B0F90000002801DB0120704700206F
:104A2000704700002DE9F043394D024687B02868F1
:104A3000B0F92A60C069C1691046002904BF07B0F7
:104A4000BDE8F0830B8883429CBF4B88984205D910
:104A500089680029F6D107B0BDE8F083002904BFBA
:104A600007B0BDE8F08348680988511A00EBC1041B
:104A70003046A77806F00CFD80462868626801235E
:104A8000816BCDE90237CDE90421C169CB7E8A7EF5
:104A9000CDE900230B7EB0F924102278B0F9220072
:104AA00005F00AFF2868C069417E027E91421FD945
:104AB000C07E11FB00F912FB00F7022E18D001F0A6
:104AC00032F9064601F012F902F0F0FE2968227868
:104AD000CB69B1F92200DB7E12FB0302B1F924108D
:104AE00001EB0903394406F0FDF8304602F0DEFE22
:104AF000404606F0CDFC28686278C369B0F9221000
:104B00009B7E12FB0311418407B0BDE8F0830000D7
:104B10006808001010B4044615480068D0F81CC09E
:104B20002046DCF81C2002B3138883429CBF5388C4
:104B3000984203D99268002AF6D116E0AAB11088EB
:104B40005368221A012000EBC2009CF81AC0185CBE
:104B500010FB0CF0002904BF10BC704713F8322082
:104B600012FB0CF20A6010BC704710BC00207047AA
:104B700068080010012008807047C06968B1028889
:104B80008A429CBF4288914203D980680028F6D1AE
:104B900003E000281CBF0120704700207047002957
:104BA00004BF00207047F8B505460C46084600F0E3
:104BB00013F806000ED000F047F9224600901DB110
:104BC0002946FBF7FDFA02E0002104F07FFB68466E
:104BD00000F0C0F93046F8BD002808BF70470CF05F
:104BE00077BF38B50546FFF7F7FF040009D000F09E
:104BF0002BF92A460021009004F068FB684600F07B
:104C0000A9F9204638BD0000024A106021F00300D7
:104C1000506070477CC50120002808BF704770B500
:104C20000E4C0546606B10F83510002918BF02299C
:104C300028BF70BD042101EBC506815948680CF0FE
:104C4000EDFE6068401C6060616B606A8851616B5A
:104C5000002001F83500656270BD0000BCC4012071
:104C6000002808BF7047044AD16B0160002918BFB3
:104C70004860D06370470000BCC401202DE9F041BA
:104C8000056806460027D5B10E4C606B10F835104C
:104C9000002918BF022912D2042101EBC50850F8DF
:104CA000081048680CF0BAFE6068401C6060616BD8
:104CB000606A41F80800606B00F835706562376023
:104CC000BDE8F081BCC401202DE9F05FB1F100081E
:104CD00081464FF00005C6BF154F4FF0000ABDE8F2
:104CE000F09F00BF09EB85063468CCB1786B10F8F3
:104CF0003410002918BF022912D2042101EBC40B81
:104D000050F80B1048680CF089FE7868401C7860F9
:104D1000796B786A41F80B00786B00F834A07C62FC
:104D20006D1CC6F800A04545DCDBBDE8F09F000027
:104D3000BCC401202DE9F04104460FF00DFEE01C3B
:104D4000274E20F00300051D306CA84288BF0546A1
:104D5000F46BBCB154F8041CA94210D19CB120687A
:104D600000281CBF61684160606800281CBF216882
:104D70000160F16BA14204BF2068F0632DE024685C
:104D8000002CE7D10024F168B06B00EB010858F863
:104D9000040CA8EB0007386840B1002010F09CFB21
:104DA00058F8040CA8EB00073868B0B97868A84236
:104DB00013DB3844401B041D384610F063FBF068D9
:104DC000401BF0607069284470617868401B1CBF0C
:104DD00039460CF023FE44F8045C2046BDE8F0811F
:104DE000BCC4012010B500240FF0B6FD0D490F2002
:104DF00001EBC002526C8AB101EBC000406C8068CC
:104E000048B14168A14288BF0C46806800281CBF99
:104E100080680028F5D1A4F10C0010BD401EE7D534
:104E2000F9E70000BCC40120002140B1054904227B
:104E300002EBC000496B08584068A0F10C0108461D
:104E400070470000BCC401200949CA69521CCA61EC
:104E50004A6B02EBC00213785B1C1370002808BF7A
:104E60007047496B042202EBC000085808307047B5
:104E7000BCC4012070B5064682B00C460846FFF758
:104E8000ABFE050018BF002E1BD03046FFF7CCFF4D
:104E9000A042B8BF04462846FFF7D6FF0090304630
:104EA000FFF7D2FF0146019022460098FBF788F9F0
:104EB000684600F04FF801A800F04CF83046FFF7C4
:104EC000ABFE02B0284670BD10B500240FF044FDC3
:104ED000174B184A0F2000BF02EBC001496CD9B133
:104EE00002EBC000406C8068C0B14168A14288BF3D
:104EF0000C46806800281CBF80680028F5D1A4F10A
:104F00000C00B0F5800F0CD983FB00104111A1EB10
:104F1000E070116A484310BD401EDDD5A4F10C00BD
:104F2000F2E7116A4843A3FB0010400910BD0000DE
:104F30001F85EB51BCC401200549102898BF1020E3
:104F400004D94A68B0EB520F28BF500888607047F8
:104F50007CC501200A4902684B6B52F8082C03EB10
:104F6000C2021378022B04D3CB69002B1CBF5B1E3B
:104F7000CB611178491E117000210160084670470D
:104F8000BCC40120002808BF70470449042202EB7A
:104F9000C000496B0858083070470000BCC40120AD
:104FA0002DE9F0414FF0000682B00B465FEA0008A1
:104FB00034462BD032B111461846FFF7F0FD0600FB
:104FC00008BF01244046FFF73FFF0090078845686F
:104FD0006846FFF7BFFFCCB9B800011D2846FFF7B0
:104FE00049FF050016D0FFF72FFF019040F827601A
:104FF00001A8FFF7AFFF4046FFF726FF009045608E
:105000000188491C01806846FFF7A4FF02B02046D2
:10501000BDE8F0813046FFF7FFFD0124F6E70820E8
:10502000FFF7DFBD002808BF704730B583B00546E5
:10503000FFF70AFF00904068D8B1FFF705FF019025
:10504000009800240088002809DD019800EB840006
:10505000FFF714FE0098641C0088A042F5DC01A84C
:10506000FFF778FF0098001DFFF708FE0099002069
:1050700008806846FFF76EFF2846FFF7CDFD03B0B6
:1050800030BD10B582B00C46FFF7DEFE00900188FF
:10509000A14227D9406828B3FFF7D6FE019000EB64
:1050A0008400FFF7EBFD00990888401E80B208805D
:1050B000011B002913DD019811F0010F00EB8400A2
:1050C00003D050F8042F40F8042C491007D0426850
:1050D00040F8082B491E026840F8042CF7D101A8BB
:1050E000FFF738FF6846FFF735FF02B010BD38B54F
:1050F000002430B1FFF7A8FE009004886846FFF74F
:1051000029FF204638BD30B583B00C46002590B14C
:10511000FFF79AFE00900188A14209D9406838B192
:10512000FFF792FE019050F8245001A8FFF712FFFC
:105130006846FFF70FFF03B0284630BD30B583B097
:105140000D460024B8B1FFF77FFE00900188A94208
:105150000ED9406860B1FFF777FE019050F82550F6
:1051600001A8FFF7F7FE280002D0FFF76DFE044606
:105170006846FFF7EFFE03B0204630BD70B5064627
:105180000D461446104600F0D5FD0300154804EB0B
:1051900084010AD050F8210041688068711A2A1AE7
:1051A000BDE87040184602F08FBB00EB8104A26896
:1051B000B24214BF01220022E368AB4214BF0123B4
:1051C00000231A4308BF70BD236943B150F8210082
:1051D000816840686A1A311A184602F08DF8C4E9ED
:1051E000026570BDD8B70010C2B2CBB2D21A48BFA8
:1051F000524292B202FB02F3C0F30722C1F3072C22
:10520000B2EB0C0248BF524292B2000CA0EB11402C
:1052100002FB023200B20028BCBF404200B280B2A2
:1052200000FB0020704700002DE9F041002182B012
:10523000084600F0C3FD43F6FF763746042006F02B
:1052400027F980461148C068C16C006D8D1B841B16
:105250000E440744ADF80050ADF80460ADF80240CC
:10526000ADF8067068460BF02DFF48B13B4632465C
:105270002146284605F036FD0BF034FD0028F5D117
:10528000404606F005F902B0BDE8F0815C08001068
:105290002DE9F041064682B01C4617460D46042013
:1052A00006F0F6F880461248C168C86C096D0644DD
:1052B00007440D440C44ADF80060ADF80470ADF83F
:1052C0000250ADF8064068460BF0FCFE48B123469C
:1052D0003A462946304605F005FD0BF003FD00284F
:1052E000F5D1404606F0D4F802B0BDE8F0810000E8
:1052F0005C080010B0F90630B0F90420B0F90210D3
:10530000B0F90000FFF7C4BF022BA4BF0020704714
:105310002DE9F04106461C4615460F461C20FFF7B6
:1053200009FD002808BFBDE8F081002F18BF076104
:105330000BD10A4A52F8241039B10A681AB1114641
:105340001268002AFBD1096901618461858200210C
:1053500001604160C0E90216BDE8F08180080010DC
:105360002DE9F04100241D46074688461646022BCB
:1053700027DA1C20FFF7DEFC18B3B8F1000F18BFC6
:10538000C0F810800BD1104A52F8251039B10A68C4
:105390001AB111461268002AFBD1096901618561C1
:1053A000868204604460C0E90247040009D000F02E
:1053B00011F8E068006820B90448006800EB850037
:1053C00084652046BDE8F081800800106808001060
:1053D000FFF746BC00281CBF8269022AA4BF012037
:1053E000704710B4244C54F82210002908BF44F828
:1053F00022003AD04B682BB119465B68002BFBD1D9
:10540000002935D0C3681B68D1F80CC0DCF800C097
:105410009C4503DD09680029F6D129E041B3D1F8A4
:105420000CC0DCF800C09C4504BFB0F814C0BCF14F
:10543000010F0DD1D1F800C0BCF1000F07D06146BB
:10544000DCF80CC0DCF800C09C45F3DA00E079B170
:105450004B68002B1DBF18604A68426044F8220068
:105460004860884208BF0021016010BC00207047DE
:1054700010BC012070470000800800100B4A8169B1
:1054800052F82130834204BF036842F8213041685A
:1054900000291CBF02680A60016800291CBF42681D
:1054A0004A600021016041607047000080080010E0
:1054B0000228A4BF00207047064951F820000028A8
:1054C00008BF7047C168096800291CBF0068002830
:1054D000F8D1704780080010002808BF70472DE9F8
:1054E000F8431E46174688460446FFF7ADFC009079
:1054F000006805686846FFF72DFD33463A46414689
:105500002046A847BDE8F88370B5044602F0ECFCDD
:1055100010EB040502F0E8FC2C1A002CD8BF70BD7B
:1055200000F020FB052CC8BF0524204602F0CEFC6D
:10553000F0E72DE9F04182B006000D46174647F628
:10554000FF784FF0000404BF02B0BDE8F08165B100
:1055500008460BF05FFA040007D002462946684669
:1055600003F0D5FC68460BF055FA43463A46294607
:10557000304602F049FF20460BF04CFA02B0BDE87D
:10558000F0812DE9F04182B01F46904606000D469D
:105590004FF0000404BF02B0BDE8F08165B10846D9
:1055A0000BF038FA040007D002462946684603F09B
:1055B000AEFC68460BF02EFA3B4642462946304682
:1055C00002F022FF20460BF025FA02B0BDE8F08180
:1055D000002808BF70472DE9FF4F0C684F680E4642
:1055E000054638B221B287B0401A401C934602905B
:1055F00000F0AAFB82461BF00C0F2BD00298019002
:105600000A98A8464FF000090090DDE900214046C5
:1056100003F006FE8044002818BF09F10109F4D107
:105620000BF00C00042818BF082802D00C2805D065
:1056300010E0381409FB1A00401C09E02014C0EBEC
:10564000274109FB1A11491C01EBD17100EB6100E4
:1056500060F31F4430460BF0DDF95FEA000909D022
:10566000CDE904470246314604A803F050FC04A8E3
:105670000BF0D0F9AAF1010828460A9A029903F022
:1056800011FE039008EB244060F31F47CDE900476B
:105690002846039903F0B2FB1BF0030108BF3088D2
:1056A0000DD001290ED0022911D1B6F90420B6F986
:1056B0000010521A101A00EBD07001EB6000ADF828
:1056C000000004E0B188081A401CADF800006A46EA
:1056D0002846039902F0CAFD28460A9A029903F067
:1056E0009FFD05440AEB244060F31F4428780028FE
:1056F000C2D148460BF08EF90BB0BDE8F08F000028
:1057000070B51446124A82B01268D36C1E18106D20
:105710004518301BADF800003019ADF80400281B07
:10572000ADF802002819ADF8060068460BF0CAFC77
:10573000002804BF02B070BD224629463046FEF75D
:10574000D5F90BF0CFFA0028F6D102B070BD0000F9
:10575000680800102DE9FF4FDFF8F8C1A1B0DCF8B0
:105760000040D4F84CC060442190246D6018229011
:105770000CEB02002390E01824902198ADF8500023
:105780002398ADF854002298ADF852002498ADF853
:10579000560014A80BF096FC002804BF25B0BDE805
:1057A000F08F22992498401A1C902E98C0F307205D
:1057B0001B902E98C0F307401A902E98000E199057
:1057C0002F98C0F3072018902F98C0F30740179028
:1057D0002F98000E169021980390DDE92280019009
:1057E000DDE92E455C4807900120249E1D9000F0C5
:1057F0009AFA1390AC4207D1204605F023FE3346B7
:105800004146019A03988CE01C98401C01280CBF6B
:105810004FF00109A0F10109E0B20E901B98089029
:10582000DDE91613DDE9182A01272046DDF868B006
:1058300005F0FF0C4446B0456CDC0E9DA1EB0A015F
:10584000ACEB050CCDF844C0DDF820C0CDF840101D
:10585000A2EB0C020F92A3EB0B020C92119AA4EB99
:1058600008014A4392FBF9F30E9A109D1A4402F084
:10587000FF0C0F9A4A4392FBF9F3089A1A44D3B2E9
:105880000C9A4CEA03234A4392FBF9F2694391FBD9
:10589000F9F15A44D2B2514443EA024242EA016564
:1058A000444522DD854208BF7F1C1ED005F0CAFD9D
:1058B0001D98012F0DDD00281FBFE11B631E019AFB
:1058C000039801BFE01B621E019B039905F00AFAD1
:1058D0000AE0019A20B1079B611E0398984703E0F4
:1058E000079B601E039998470127641C2846B44211
:1058F000B4DD05F0A7FD1D993046012F14DD002908
:10590000A0EB070109D03346491C019A039805F022
:10591000E9F914E005F096FD07E0481C3246019BCA
:10592000039905F0DFF90AE029B1079B3146019A96
:105930000398984703E0079B019A039998471398A7
:1059400005F080FD0BF0CEF900287FF444AF25B0C0
:10595000BDE8F08F6808001035AB0008F0B5134CB7
:10596000844683B02368D86C4618196D851801EBFE
:105970000C07ADF80060ADF80450ADF80270ADF85A
:10598000067068460BF09EFB002804BF03B0F0BD14
:1059900020682A463946406E0368304698470BF027
:1059A000A1F90028F4D103B0F0BD00006808001090
:1059B0002DE9F043DFF850C083B0DCF80040D4F8A4
:1059C0004CC00CEB0007206D0CEB02054618C41808
:1059D00000200BF077FB002819BF4FF000080DF1F5
:1059E000040903B0BDE8F0833846CDE9009831469C
:1059F0002A462346FEF7F6FA0BF074F90028F3D195
:105A000003B0BDE8F08300006808001070B5114CC9
:105A100082B02268D36C1E18106DADF80460451872
:105A2000ADF80060ADF80650ADF8025068460BF0D6
:105A300049FB002804BF02B070BD20682946406EB3
:105A40004268304690470BF04DF90028F5D102B07E
:105A500070BD000068080010F0B5DFF880C083B0AA
:105A6000DCF80040E76C94F818C03E18206DACF1EB
:105A7000010C4518C418A6EB0C001744ADF8000043
:105A800007EB0C00ADF80400A5EB0C00ADF802002C
:105A900004EB0C00ADF8060068460BF013FB002881
:105AA00004BF03B0F0BD3A462946304605F042F83F
:105AB0003A462146304605F03DF8621E691C3046E4
:105AC00005F0A2F8621E691C384605F09DF80BF03F
:105AD00009F90028E7D103B0F0BD00006808001004
