:020000040800F2
:1000000000FA012065A901082B3B00082D3B0008E0
:100010002F3B0008313B0008333B00080000000084
:10002000000000000000000000000000353B000858
:10003000373B000800000000E1A90108B184000876
:10004000E5A90108E9A90108EDA90108F1A901083C
:10005000F5A90108F9A90108FDA9010801AA0108EB
:1000600005AA010809AA01080DAA010811AA010898
:1000700015AA010819AA01081DAA010821AA010848
:1000800025AA010829AA01082DAA010831AA0108F8
:1000900035AA010839AA01083DAA010841AA0108A8
:1000A00045AA010849AA01084DAA010851AA010858
:1000B00055AA010859AA01085DAA010861AA010808
:1000C00065AA010869AA01086DAA010871AA0108B8
:1000D00075AA010899B60008A3B60008ADB60008D5
:1000E00079AA01087DAA010881AA010885AA010848
:1000F00089AA01088DAA010891AA010895AA0108F8
:1001000099AA0108393B00081B8500089DAA01082F
:10011000A1AA0108A5AA0108A9AA0108ADAA010877
:10012000B1AA0108B5AA0108B9AA01083B3B000819
:10013000BDAA0108C1AA0108C5AA0108C9AA0108E7
:10014000CDAA0108D1AA0108D5AA0108D9AA010897
:10015000DDAA0108E1AA0108E5AA0108B7B600086E
:10016000E9AA0108EDAA0108F1AA0108F5AA010807
:10017000F9AA0108FDAA010801AB010805AB0108B5
:1001800009AB01080DAB0108F0B40568B0F90C30FB
:10019000B0F90E60B0F91040B0F912204769011DA6
:1001A000FFB9B5F90270BA42A4BFB5F900C0644501
:1001B00056DBB5F906C0B445A4BFB5F904C09C45EB
:1001C0004EDBBE420ADA4E806A880B80521ECA801D
:1001D0008C80012141610120F0BC704701274761FB
:1001E00001E0012F0BD1B5F90070BB4204DA0B809E
:1001F0002B885B1E8B800CE00227476101E0022FF9
:100200001CD1B5F90470A74215DA8C80AB885B1C51
:100210000B80B5F902309E42B8BF1E464E80B5F93C
:1002200006309342B4BFCB80CA804169491C41610A
:100230000120F0BC70470326466101E0032F0FD177
:10024000B5F90650954209DA6D1C4D80CA800B80C5
:100250008C80042141610120F0BC70470421416180
:100260000020F0BC7047000070B4089C6060A16082
:10027000E26023611018059D6561421E0798B0F980
:1002800002505B185B1E691A012921600ADB26698E
:10029000761A012E266170DBA560049E656906FB57
:1002A00001516161B0F90610591A0129216004DB7E
:1002B0002369591A012921615FDBB0F90410531A2F
:1002C0002360E2686568B0F90000069E012BA8BFB4
:1002D000D21A8542334643DA431BB018C21A039838
:1002E000401E1F283CD8DFE800F0101A3B243B3B9F
:1002F0003B2E3B3B3B3B3B3B3B313B3B3B3B3B3B65
:100300003B353B3B3B3B3B3B3B35606900EBD30024
:10031000606123F00700451903F0070320E06069DE
:1003200000EB9300606123F00300451903F0030321
:1003300016E0606900EB5300606123F0010045198D
:1003400003F001030CE06069181806E0606900EB37
:10035000430002E0606900EB83005D1960610023E7
:100360006560236060681D185519A94202DA081AF1
:10037000C01A421C012AE26002DA70BC01207047F8
:1003800070BC0020704700002DE9F04F97B0044684
:100390008B469046994611A8002100220B460EC0BC
:1003A0000EC0A06802F0B3FA069000270699B0F9D3
:1003B0000800B1F90410401A401C0A9006984069E0
:1003C00009900698001D1190249ED4F800A0259C49
:1003D0001199ADF8528006EB0B00ADF8500048447F
:1003E000401EADF85400209D05EB0800401EADF8FE
:1003F000560014A802F064FB00283CD10594049632
:100400004B462398039042462298029059462198E1
:10041000019000955046DAF80C406468A04706A8A1
:1004200002F086FA17B0BDE8F08F0BA805902B46B6
:1004300012A8049003964A462398029041462298B7
:100440000190219800905846FFF70EFF98B90B983D
:100450000E9B0D9A0C990490059410980390229885
:100460000290219801900F9800905046DAF80CC045
:10047000DCF804C0E04711A8FFF786FE0028D4D1BD
:10048000119907A8082202F037FB14A907A802F067
:1004900017FB0028C3D014A907A802F068FB0BA81B
:1004A00005902B4607A8049003964A46239802908D
:1004B000414622980190219800905846FFF7D4FEBB
:1004C0000028ACD1DAF81000DFF8389D806880474A
:1004D0000699BDF91E80C9688346BDF9220000292E
:1004E00000F0918040459ADBBDF91C50BDF9200019
:1004F000A842C0F280800D98109A2299A8EB0000C3
:1005000000900C982B1A219802F051FB0646069891
:10051000B0F90600A8EB00020698B0F90400291A09
:10052000099802F092FB002837D00698B0F906200F
:100530000A99A8EB020202FB0151B0F90420891AC2
:1005400000EB810000F12002D9F80000007C002CB3
:1005500000F0030011D0032847D8DFE800F00408BA
:100560000208002E41D054F8260010603DE054F8F7
:1005700026008BEA0000106037E0032835D8DFE85A
:1005800000F00208040816602FE0002E2DD016603F
:100590002BE08BEA0600106027E0D9F80000007C11
:1005A000002C00F003000ED003281ED8DFE800F076
:1005B00003060206CEB154F826300FE054F82600A8
:1005C0008BEA00030AE003280FD8DFE800F00305F8
:1005D000020556B1334601E08BEA0603DAF80C70E7
:1005E000BF69424629465046B847BDF920006D1CF8
:1005F000A842BFF680AFBDF9220008F101084045CE
:10060000FFF60DAF70E74045FFF609AFBDF91C508E
:10061000BDF92000A842C0F28F800D98109A22994F
:10062000A8EB000000900C982B1A219802F0BFFA5A
:1006300006460698B0F90600A8EB00020698B0F945
:100640000400291A099802F000FB010ED9F80030C5
:10065000FF2944D0069AB2F906E0DDF828C01B7CD9
:10066000A8EB0E0E0EFB0C5CB2F904E0ACEB0E0C2A
:1006700002EB8C022032002C03F003030ED0032B7C
:1006800019D8DFE803F003060206A6B154F8267075
:1006900010E054F826708BEA07070BE0032B0AD80A
:1006A000DFE803F0030602062EB11660374602E0CB
:1006B0008BEA06071760002938D0C1F1FF02D2B2D9
:1006C000394602F0E3FA069ADFF83C1B1268926999
:1006D00051F8221009690968884703461EE0187C12
:1006E000002C00F003000ED003281FD8DFE800F034
:1006F00003060206D6B154F826300FE054F826005F
:100700008BEA00030AE0032810D8DFE800F00305B5
:1007100002055EB1334601E08BEA0603DAF80C60AD
:10072000D6F818C0424629465046E047BDF9200099
:100730006D1CA842BFF671AFBDF9220008F1010897
:100740004045FFF66CAE61E72DE9F04F89B00746F2
:100750000E4614461D4603A8002100220B460EC07B
:100760000EC0B86802F0D3F800900099B0F9080004
:10077000B1F90410401A00F101090098D0F814B042
:10078000001D039006A83F680399ADF81860ADF806
:100790001A40ADF81C50ADF81E4002F091F9B8B9FE
:1007A0002246FC68A4682B4631463846A04700A87C
:1007B00002F0BEF809B0BDE8F08FFD68BDF9143055
:1007C000BDF91220BDF91010D5F808C03846E04731
:1007D00003A8FFF7D9FC0028EFD1039901A808224C
:1007E00002F08AF906A901A802F06AF90028DED011
:1007F00006A901A802F0BBF9DFF8085A2868C06B07
:10080000D0F800800098C068A0B3BDF90460BDF9BD
:100810000800B042CBDB0098B0F90600221A00981D
:10082000B0F90400311A584602F00FFA88B1009866
:10083000BDF90610B0F90620891AB0F9042001FBB1
:100840000961891A00EB81002968C96B0968016296
:100850000AE02868C06BD7F80CC00368DCF818C041
:10086000224631463846E047BDF90800761CB042C2
:10087000D1DA9CE70099DFF890590968896955F841
:10088000211009694968404688478246BDF90460DD
:10089000BDF90800B0428ADB0098B0F90600221AC0
:1008A0000098B0F90400311A584602F0CEF9010E52
:1008B000FF291ED0009AB2F90630B2F904C0E31A3B
:1008C00003FB0963A3EB0C0302EB8302C2F8208055
:1008D000C1B1C1F1FF02D2B2514602F0D7F900997D
:1008E0000968896955F8211009690968884703462C
:1008F00000E04346D7F80CC0DCF818C02246314669
:100900003846E047BDF90800761CB042C4DA4EE72D
:100910002DE9F04F89B007460C4615461E4603A840
:10092000002100220B460EC00EC0B86801F0EFFF98
:1009300000900099B0F90800B1F90410401A00F1D4
:1009400001080098D0F814B0001D039006A83F6875
:100950000399ADF81840ADF81A50ADF81C40ADF849
:100960001E6002F0ADF8B8B92146FC68E468334671
:100970002A463846A04700A801F0DAFF09B0BDE8D2
:10098000F08FFD68BDF91630BDF91220BDF91010C9
:10099000D5F80CC03846E04703A8FFF7F5FB002860
:1009A000EFD1039901A8082202F0A6F806A901A830
:1009B00002F086F80028DED006A901A802F0D7F8D8
:1009C000DFF840080068C06B05680098C06868B32D
:1009D000BDF90660BDF90A00B042CCDB0098B0F961
:1009E0000600321A0098B0F90400211A584602F0A5
:1009F0002CF960B10098B0F90610B0F90420711A12
:100A000001FB0841891A00EB8100056208E0D7F874
:100A10000CC0DCF818C02B46324621463846E04769
:100A2000BDF90A00761CB042D8DAA4E70099DFF8D5
:100A3000D8970968896959F82110096949682846D1
:100A400088478246BDF90660BDF90A00B04292DBD4
:100A50000098B0F90600321A0098B0F90400211A83
:100A6000584602F0F2F8010EFF291DD0009AB2F9A3
:100A70000630B2F904C0F31A03FB0843A3EB0C03DE
:100A800002EB83021562C1B1C1F1FF02D2B251463D
:100A900002F0FCF800990968896959F82110096980
:100AA00009688847034600E02B46D7F80CC0DCF8FD
:100AB00018C0324621463846E047BDF90A00761C88
:100AC000B042C5DA57E700002DE9F04F8BB006467B
:100AD0000F461546994604A8002100220B460EC079
:100AE0000EC0B06801F013FF01900199B0F9080041
:100AF000B1F90410401A00F1010A0198D0F814B0BD
:100B0000001D049007A83668ADF81C70ADF81E50A3
:100B1000ADF82090149C0499ADF8224001F0D0FF6C
:100B2000D8B900944B46F468D4F810A02A46394648
:100B30003046D04701A801F0FBFE0BB0BDE8F08FB6
:100B4000BDF91A00BDF91830BDF91620BDF9141011
:100B500000903046F7683F69B84704A8FFF714FBD8
:100B60000028EDD1049902A8082201F0C5FF07A9C9
:100B700002A801F0A5FF0028DCD007A902A801F017
:100B8000F6FFDFF88086D8F80000C06B0768019890
:100B9000C06800283CD0BDF90A40BDF90E00A04253
:100BA000FFF6C8AFBDF90850BDF90C00A84229DB1B
:100BB0000198B0F90600221A0198B0F90400291A28
:100BC000584602F042F860B10198B0F90610B0F949
:100BD0000420611A01FB0A51891A00EB81000762A7
:100BE0000BE0D8F80000C06BD6F80CC00368DCF846
:100BF00018C0224629463046E047BDF90C006D1C5E
:100C0000A842D5DABDF90E00641CA04292DBC9E708
:100C10000199DFF8F4850968896958F82110096994
:100C20004968384688478146BDF90A40BDF90E003B
:100C3000B0EB040FFFF67EAFBDF90850BDF90C0014
:100C4000A84239DB0198B0F90600221A0198B0F9E0
:100C50000400291A584601F0F8FF010EFF291DD0A3
:100C6000019AB2F90630B2F904C0E31A03FB0A5341
:100C7000A3EB0C0302EB83021762C1B1C1F1FF02C7
:100C8000D2B2494602F002F801990968896958F818
:100C90002110096909688847034600E03B46D6F8F9
:100CA0000CC0DCF818C0224629463046E047BDF9A2
:100CB0000C006D1CA842C5DABDF90E00641CA042F0
:100CC000FFF638AFB8E72DE9F041074682B0B868C3
:100CD0000C46154601F01BFE00900099B0F9080083
:100CE000B1F90410009E3F68401A00F101088C42DF
:100CF0007069A4BFB6F90620954210DB611A03881B
:100D000001F1010C6345A1BFAA1A438802F1010C4D
:100D1000634504DB01F099FFF16871B180B9FB68AC
:100D20005B692A46214638469847044600A801F0E8
:100D3000FFFD204602B0BDE8F081000EFF28EED294
:100D40000098B0F90610B0F90420691A01FB0841B7
:100D5000891A00EB8100046AE8E72DE9F0430646B2
:100D600081B0B0680C461546994601F0D0FD009060
:100D70000099B0F90800B1F90410009F3668401AD4
:100D800000F101088C427869A4BFB7F906209542AA
:100D900010DB611A038801F1010C6345A1BFAA1A97
:100DA000438802F1010C634504DB01F04EFFF96852
:100DB00011B120B94B463BE0000EFF28FAD2009853
:100DC000B0F90610B0F90420691A01FB0841891A2C
:100DD00000EB8100C0F820900098C06870BB0099BB
:100DE000DFF824740968896957F82110096949688E
:100DF0004846884781460098B0F906002A1A0098AC
:100E0000B0F90400211A0098406901F01EFF010E9C
:100E100014D0C1F1FF02D2B2494601F037FF009968
:100E20000968896957F821100969096888470346E4
:100E30002146F468A4692A463046A04700A801F07C
:100E400077FD01B0BDE8F0832DE9F047064682B09A
:100E5000B0680C46154601F05AFD00900099B0F9B3
:100E60000800B1F90410009F3668401A00F101082B
:100E70008C427869A4BFB7F90620954210DB611A4D
:100E8000038801F1010C6345A1BFAA1A438802F14E
:100E9000010C634504DB01F0D8FEF96839B148B9AB
:100EA000F368DB692A462146304698474AE0000E3F
:100EB000FF28F5D20098B0F90610B0F90420691A9D
:100EC00001FB0841891A00EB810000F1200730691D
:100ED000806880473968484038600098C06888BB9F
:100EE0000098B0F906002A1A0098B0F90400211AF7
:100EF0000098406901F0A9FE81465FEA196A21D095
:100F00000099DFF804830968896958F82110096994
:100F1000386849688847CAF1FF020102D2B2090A5B
:100F2000484601F0B3FE00990968896958F8211014
:100F30000969096888472146F468A46903462A4676
:100F40003046A04700A801F0F3FC02B0BDE8F087EE
:100F500000207047006810B1C3681B6A18477047CB
:100F600002681268026012B1D268526A104700200B
:100F70007047006810B1C268926A104770470068F5
:100F800010B1C268126B10477047F0B50D4687B0BC
:100F9000E96811B9002007B0F0BD046814B9012058
:100FA00007B0F0BD95F930202868012A02D1AF6A58
:100FB000064606E06A682F6A161DEA6900EB8200A1
:100FC000001F68603046AA6902F040F800200590D2
:100FD00004900396394668690290A869019001203F
:100FE00000902046E468EB68EA6A6468A047002045
:100FF000E86007B0F0BD30B504460D46A069DFF8E3
:101000000C124156022981B00DDB00216980298034
:1010100002F073F9401EA880A06902F07CF9401E1E
:10102000E88001B030BD29462046E268126B01B06D
:10103000BDE8304010472DE9F04F89B001F067FC62
:101040000090D0F80080D8F8180005906D4800682E
:10105000417C0491049A0599914218BF417400980B
:101060000099D0F8149000F1200A01A8091D082267
:1010700001F042FD06A94046FFF7BDFF06A901A801
:1010800001F075FD009E706900888000343001F029
:1010900031FC050000F09F8001F039FC0446306807
:1010A000806902F035FA002800F09580C268926AE3
:1010B0000821904703280BDB052808DB092804DBFF
:1010C0001128B4BF1020202002E0082000E00420F6
:1010D000A0610928B8BF012003DB1128B4BF02209A
:1010E00004202061706900882169E06148436061E3
:1010F00001F034FC61698842C8BF08466061A560A0
:1011000004F1340020600020E060012084F8300009
:10111000002C206860605ED0BDF90650BDF90A0061
:10112000A8424ADB0098B0F90600BDF904702E1AF7
:10113000BDF90800B8423BDB0098B0F90400A7EB0A
:10114000000B32465946484601F07FFD0099C968B8
:1011500009B118B927E0000EFF2824D2B9F8000021
:1011600070430AEB800050F82BB0606A854201BFE3
:10117000206A94F9301040FA81F0874203D021466A
:101180004046FFF702FF6068C0F800B094F93010E5
:1011900000EB81006060E06808B9A762E562401C6E
:1011A000E060276265627F1CBDF90800B842C3DABF
:1011B000BDF90A006D1CA842B4DA009803942146D8
:1011C0000068FFF7E2FE0398846803A801F0B0FB13
:1011D000204601F01AFC00988269100003D00098A4
:1011E000C0690121904700A801F0A2FB059804996D
:1011F000884203D0084603490968487409B0BDE82D
:10120000F08F00008400002088000020E4B9012055
:101210002DE9F64FA3B001F07AFB01900068019927
:101220000690B1F904102398884201BF24980199CF
:10123000B1F90610884200F0CE83002002F051FB85
:101240002290069880690A90DFF898070068417C30
:101250001D911D9A0A99914218BF41740198B0F9E5
:1012600004000D900198B0F906000D990C900198BA
:10127000B0F90800401A401C129001980C99B0F97E
:101280000A00401A401C1C90002020900198007C0D
:10129000800740F18383019840690D99159001986A
:1012A00020301F902398401A09900C992498401AD6
:1012B000089012980999401E012909DB0121079124
:1012C0001B90002114910998129911911A900AE02B
:1012D00014904FF0FF310020079111911A90099955
:1012E000149808181B901C980899401E012908DBC7
:1012F00001211991189000241C99089810911790B9
:1013000009E00446002017904FF0FF31089819912A
:1013100000191091189003A90698FFF76CFEDDF8EC
:1013200004A0DAF8140000888000343001F0E2FAFA
:10133000060000F0338301F0EAFA0546DAF800000F
:10134000806902F0E5F8002800F02883C268926AFC
:101350000821904703280BDB052808DB092804DB5C
:101360001128B4BF1020202002E0082000E0042053
:10137000A8610928B8BF012003DB1128B4BF0220EF
:1013800004202861DAF8140000882969E8614843DC
:10139000686101F0E3FA6969AE608842C8BF084637
:1013A000686105F1340028600020E860079885F83E
:1013B000300007992868012903D0E96900EB810012
:1013C000001F002D686000F0E982DDF80480D8F885
:1013D000140000888000343001F08CFA5FEA000AC3
:1013E00000F0CE8201F093FA0646D8F8000080693A
:1013F00002F08EF8002800F0C382C268926A0821C9
:10140000904703280BDB052808DB092804DB11289B
:10141000B4BF1020202002E0082000E00420B061CA
:101420000928B8BF012003DB1128B4BF0220042023
:101430003061D8F8140000883169F0614843706168
:1014400001F08CFA7169C6F808A08842C8BF084646
:10145000706106F1340030600020F060079886F873
:10146000300007980128306803D0F16900EB810053
:10147000001F002E706000F083820198C068002871
:1014800000F0238101F043FA10991E908C420294DF
:1014900000F0178102981799DDF850A08842A2BF8A
:1014A000189802998842ACBF012000200F9008993B
:1014B0000C98081802990818009008990298401A88
:1014C0000B9012990298484316900C9902980818AC
:1014D00013901198824500F0EC80029A15985146BD
:1014E00001F0B3FB00245FEA000800F0DC801F98E5
:1014F000169900EB810000EB8A000E9009990D9877
:1015000008180AEB00091A988245A3BF1B9850459A
:101510000F9F0027BDF90C008145A2BF0098BDF9BF
:101520000E1088423FDBBDF910004845A2BFBDF94F
:1015300012000099884236DB019CB4F904108945F9
:10154000A4BFB4F90800484515DBB4F90600009AB9
:101550008242A2BFB4F90A20009B9A420BDBA9EB9E
:10156000010105910099A1EB000B059960695A46AC
:1015700001F06BFB58B90698006830B1C368009A57
:101580005B694946984704460DE000240BE0B4F936
:101590000800B4F90410401A0599401C0BFB001018
:1015A00004EB8000046AFFB25FB10998BAEB000156
:1015B0005CBF0B9800283CD40246159801F045FB0F
:1015C000B8BB0D98DDF84CB000EB0A07BDF90C0074
:1015D0008742A4BFBDF90E0083452ADBBDF9100088
:1015E000B842A4BFBDF91200584522DB0E9800682E
:1015F0000590706A834501BF306A96F9301040FA51
:1016000081F0874203D006983146FFF7BEFC706830
:101610000599016096F9301000EB81007060F06868
:1016200010B9B762C6F82CB0401CF0603762C6F83B
:1016300024B0BDF90C008145A2BF0098BDF90E1081
:1016400088422EDBBDF910004845A2BFBDF912004B
:101650000099884225DB1E9850F828800846696A60
:10166000884201BF286A95F9301040FA81F081451F
:1016700003D006982946FFF788FC6868C0F8008008
:1016800095F9301000EB81006860E86818B9C5F87A
:1016900028900099E962401CE860C5F82090009805
:1016A00068620E98046007988244119882457FF41E
:1016B00014AF0298199908181099029088427FF483
:1016C000E9AE1EA801F034F94CE1109902948C4265
:1016D00000F0488102981799DDF850A08842A2BF17
:1016E000189802998842ACBF012000200F900899F9
:1016F0000C98081802990818009008990298401A46
:10170000139012990298484316900C990298081861
:1017100021901198824500F01D81029A159851463A
:1017200001F093FA002480464FEA1860FF280B90DE
:1017300000F00A811F98169900EB810000EB8A00E7
:101740000E9009990D9808180AEB00091A9882451D
:10175000A3BF1B9850450F9F0027BDF90C00814582
:10176000A2BF0098BDF90E10884250DBBDF91000F1
:101770004845A2BFBDF912000099884247DB019C91
:10178000002005908346B4F904108945A4BFB4F93C
:101790000800484516DBB4F90600009A8242A2BF51
:1017A000B4F90A20009B9A420CDBA9EB01010591D8
:1017B0000099A1EB000B606920B105995A4601F030
:1017C00044FA01E04FF07F40000EFF2808D1069850
:1017D000006888B1C368009A5B69494698470BE086
:1017E000B4F90800B4F90410401A0599401C0BFB29
:1017F000001004EB8000006A7B490A9A51F822101D
:101800000969496804462002000A88472090FFB20F
:101810006FB10998BAEB00015CBF139800283ED461
:101820000246159801F011FA000EFF2837D10D98E5
:10183000DDF884B000EB0A07BDF90C008742A4BFB5
:10184000BDF90E0083452ADBBDF91000B842A4BFE4
:10185000BDF91200584522DB0E9800680590706AA9
:10186000834501BF306A96F9301040FA81F0874213
:1018700003D006983146FFF788FB70680599016030
:1018800096F9301000EB81007060F06810B9B76213
:10189000C6F82CB0401CF0603762C6F824B0BDF921
:1018A0000C008145A2BF0098BDF90E10884249DBAB
:1018B000BDF910004845A2BFBDF912000099884249
:1018C00040DB4FEA08200B990A9A000A0029464992
:1018D00051F82210096949680FD088470B99C1F166
:1018E000FF022099D2B201F0D1F93F490A9A51F88A
:1018F000221009690968884700E0884780460098F7
:10190000696A884201BF286A95F9301040FA81F06F
:10191000814503D006982946FFF737FB6868C0F871
:10192000008095F9301000EB81006860E86818B914
:10193000C5F828900099E962401CE860C5F820903D
:10194000009868620E980460079882441198824556
:101950007FF4E3AE02981999081810990290884212
:101960007FF4B8AE0198009631460068FFF70DFB92
:101970000098846800A800F0DBFF204601F045F8DD
:101980000198009529460068FFF7FFFA00988468DF
:1019900000A800F0CDFF204601F037F80199239808
:1019A000888001992498C880129923980818019971
:1019B000401E08811C99249808180199401E4881EE
:1019C0001D990A98884203D0084606490968487458
:1019D000229801F086FF01A800F0AAFF25B0BDE81B
:1019E000F08F000084000020880000202DE9F04FD7
:1019F0008FB000F08CFF009080690B900098C06958
:101A00000C9000980068019080690490DFF87C05D4
:101A10000068417C0891089A0499914218BF41746A
:101A200000984069009D0690009820300A906869EF
:101A300000888000343000F05DFF060000F0D681A1
:101A400000F065FF04462868806901F061FD002808
:101A500000F0CC81C268926A0821904703280BDB12
:101A6000052808DB092804DB1128B4BF102020203A
:101A700002E0082000E00420A0610928B8BF01208E
:101A800003DB1128B4BF02200420206168690088AC
:101A90002169E0614843606100F060FF6169A66010
:101AA0008842C8BF0846606104F13400206000200D
:101AB000E060012084F83000002C2068606000F0B5
:101AC000958100990020486102A80099091D08220B
:101AD00001F012F801980DA9FFF78DFA0DA902A8DF
:101AE00001F045F80098C068002800F0888000F0F8
:101AF0000EFF0990BDF90A50BDF90E00A8427ADB2D
:101B00000098B0F90600BDF90860281A0590BDF9E3
:101B10000C00B0426ADB0098B0F90400059A371A4D
:101B20000698394601F091F85FEA000859D0DDF8CF
:101B30000090B9F904008642A4BFB9F90810B14277
:101B400012DBB9F906108D42A4BFB9F90A20AA42E6
:101B50000ADBA6EB000AA5EB010BD9F814005A46E4
:101B6000514601F072F840B90198006880B1C3682D
:101B70005B692A46314698470AE0B9F90800B9F985
:101B80000410401A401C0BFB00A009EB8000006A07
:101B9000069B059A1B880A995A4301EB820141F87A
:101BA0002700099850F82870606A854201BF206AB2
:101BB00094F9301040FA81F0864203D00198214612
:101BC000FFF7E3F96068076094F9301000EB8100DB
:101BD0006060E06808B9A662E562401CE0602662C9
:101BE0006562761CBDF90C00B04294DABDF90E00B6
:101BF0006D1CA84284DA09A800F09AFEE8E0BDF95D
:101C00000A50BDF90E00A842C0F2E2800098B0F977
:101C10000600BDF90860281A0590BDF90C00B04215
:101C2000C0F2D0800098B0F90400059A371A0698DF
:101C3000394601F00AF880464FEA1860FF280790FD
:101C400000F0BA80DDF80090B9F9040086424FF048
:101C5000000AA4BFB9F90810B142D34613DBB9F9A1
:101C600006108D42A4BFB9F90A20AA420BDBA6EBED
:101C7000000AD9F81400A5EB010B20B15A465146D1
:101C800000F0E3FF01E04FF07F40000EFF2808D195
:101C90000198006880B1C3685B692A46314698475D
:101CA0000AE0B9F90800B9F90410401A401C0BFB0E
:101CB00000A009EB8000006A069B059A1B880A9920
:101CC0005A4301EB820141F82700079800284AD0C7
:101CD000009FB7F9040086424FF00009A4BFB7F98E
:101CE0000810B142CA4612DBB7F906108D42A4BFF4
:101CF000B7F90A20AA420ADBA6EB00097869A5EB2E
:101D0000010A20B15246494600F09FFF01E04FF022
:101D10007F40000EFF2808D10198006880B1C36899
:101D20005B692A46314698470AE0B7F90800B7F9D7
:101D30000410401A401C0AFB009007EB8000006A68
:101D4000DFF84C12049A51F8221009694968000220
:101D5000000A884701460798C0F1FF02D2B2404608
:101D600000F094FF02E04FEA0820000ADFF820129A
:101D7000049A51F822100969096888470746606A81
:101D8000854201BF206A94F9301040FA81F0864202
:101D900003D001982146FFF7F8F86068076094F9CE
:101DA000301000EB81006060E06808B9A662E5626F
:101DB000401CE06026626562761CBDF90C00B042F2
:101DC000BFF630AFBDF90E006D1CA842BFF61EAFC6
:101DD0000098019421460068FFF7D7F801988468BD
:101DE00001A800F0A5FD204600F00FFE009906981E
:101DF000486108990498884203D0084663490968F5
:101E0000487400A800F094FD0B9818B10C980B9A38
:101E1000002190470FB0BDE8F08F2DE9F04782B068
:101E200081460D4600F073FD0090C6680068876922
:101E300000A800F07DFD16B1304600F0E6FDE86830
:101E40000068800001F0C6FD060008BF012027D011
:101E500000F05DFD8046CDF804800024E868DFF8DE
:101E600030A1006801280FDBE8685AF82710806865
:101E7000096950F824000968884748F8040B641C75
:101E8000E86800688442EFDB01A800F051FD484695
:101E900000F03DFD0090C66000A800F049FD002064
:101EA00002B0BDE8F0872DE9F043054683B02888ED
:101EB00000281CBF688800280E4617464FD0E868E7
:101EC00028B1806830B9002003B0BDE8F083E8880D
:101ED000202844D10A9C0FF2641004F00102002172
:101EE00001F039FB5FEA000839D028886988484347
:101EF0008000203001F06EFD5FEA000906D1404607
:101F000001F027FB002003B0BDE8F083C8F808907B
:101F100000F0FDFC009004820098456100988680E6
:101F20000098C7800098B5F90010808808180099BB
:101F3000401E08810098B5F90210C0880818009961
:101F4000401E48810098C0F8008000A800F0F0FC16
:101F5000E86840B129464846FFF75FFF18B1002006
:101F600003B0BDE8F083A0070CD5484600F0CFFCD5
:101F70000190006801F035FB01A800F0D9FC48464B
:101F8000FFF734FD484603B0BDE8F083840000202D
:101F90008800002010B5040082B020D0FFF74BF875
:101FA000204600F0B4FC0190006801F005FB01A898
:101FB00000F0BEFC204600F0AAFC0090006800F093
:101FC000C7FB0098C06800F020FD0098C06900F0D1
:101FD0001CFD00A800F0ACFC204600F016FD02B08D
:101FE00010BD002818BFFFF713B9704710B50400E3
:101FF00082B021D000F08BFC0090007C800718D4C8
:10200000204600F084FC0190006801F0EAFA01A883
:1020100000F08EFC00A800F08BFC2046FFF7E6FCE9
:10202000204600F074FC00900099008A40F0020005
:10203000088200A800F07CFC02B010BD0300000084
:10204000890300084907000811090008C90A0008A7
:10205000C70C00085B0D0008490E0008550F00086A
:10206000610F0008730F0008510F00087F0F000870
:1020700070B44168DFF8404A5FF00F0304F1B8051F
:1020800055F80869B14201D25B1EF9D52268511A90
:10209000216004EBC30150F8082F4068443102B1BD
:1020A0005060002814BF02600A6070BC70470000D6
:1020B000F0B5DFF8044A0546A06B0E46E168081843
:1020C000AF19401EB84281B006D3386820B978688D
:1020D00045193846FFF7CCFFA06BB0420AD256F83C
:1020E000040C371A386828B9786845193846FFF75C
:1020F000BFFF3E465FF00F0004F1B80151F8082918
:10210000954201D2401EF9D504EBC0000022416C7B
:102110003260756006F108021160A919366141F854
:10212000045C50F8441F01B14A6011600021516005
:102130000260206894F829102818206031B9E168FD
:10214000081AA168814238BF0146A160284601B043
:10215000F0BD0000F0B581B08B080022002B0546D1
:1021600043D013F00307164600F00E804FF0FF0C2B
:10217000B6FBFCFCCCEB0C2CA6EB0C047F1E45F84C
:10218000044B06F10106F1D19F082ED04FF0FF0C51
:10219000B6FBFCFCCCEB0C2CA6EB0C0445F8044B7A
:1021A0004FF0FF0E741CB4FBFEFECEEB0E2EA4EB24
:1021B0000E0445F8044B4FF0FF0EB41CB4FBFEFEBA
:1021C000CEEB0E2EA4EB0E0445F8044B4FF0FF0EA1
:1021D000F41CB4FBFEFECEEB0E2EA4EB0E047F1E11
:1021E00045F8044B06F10406D0D1064600251746F3
:1021F00001E06D1C7F1C9D420ED24FF0FF0EB7FB1D
:10220000FEFE56F8044BCEEB0E2EA7EB0E0E7445D9
:10221000EFD0032001B0F0BD521C022A9ED34C081F
:1022200000220027002C05464AD014F0030C164665
:1022300000F011804FF0FF0EB6FBFEFECEEB0E2E2F
:102240007F1CACF1010CA6EB0E0E761CBCF1000F4E
:1022500025F802EBEED1A60832D0D7194FF0FF0CCB
:10226000B7FBFCFCCCEB0C2CA7EB0C0C25F802CB41
:102270004FF0FF0E07F1010CBCFBFEFECEEB0E2E65
:10228000ACEB0E0C25F802CB4FF0FF0E07F1020C61
:10229000BCFBFEFECEEB0E2EACEB0E0C25F802CBFB
:1022A0004FF0FF0E07F1030CBCFBFEFECEEB0E2E33
:1022B000ACEB0E0C761E25F802CB07F10407CDD14E
:1022C00006460025174601E06D1C7F1CA54210D272
:1022D0004FF0FF0EB7FBFEFECEEB0E2E36F802CB14
:1022E000A7EB0E0E1FFA8EFEF445EDD0022001B0D2
:1022F000F0BD521C022A94D3002200260029044675
:1023000043D011F00307154600F00F804FF0FF0C8B
:10231000B5FBFCFCCCEB0C2C761CA5EB0C0C7F1E4F
:1023200004F801CB05F10105F0D11D002DD096195F
:10233000FF27B6FBF7F7C7EB0727F71B04F8017B6E
:102340004FF0FF0C771CB7FBFCFCCCEB0C2CA7EB85
:102350000C0704F8017B4FF0FF0CB71CB7FBFCFC2B
:10236000CCEB0C2CA7EB0C0704F8017B4FF0FF0C17
:10237000F71CB7FBFCFCCCEB0C2CA7EB0C076D1E81
:1023800004F8017B06F10406D2D104460025164666
:1023900001E06D1C761C8D420DD24FF0FF0CB6FB98
:1023A000FCFC14F8017BB4445FFA8CFC6745F0D068
:1023B000012001B0F0BD521C022A9ED309B101F0E8
:1023C0001DFB002001B0F0BD10B5DFF8EC46002089
:1023D00084F828008022002104F1400001F022FB53
:1023E000C0220021204601F01DFB04F1C000BDE821
:1023F00010400C22002101F015BB2DE9F041DFF85F
:10240000B846E06A40B9D4F8C810D4F8C40008311E
:10241000B0FBF1F0871C03E0206900EBD000071D42
:10242000F80000F0C5F85FEA000842D0616BE66A88
:1024300001EBC800406800F108052069C200284689
:1024400000F06AFB206965637A1E9042C4F82C8014
:1024500001461BD2101A05EBC102121D10F0030336
:1024600004D0491C5B1E42F8081BFAD180080DD02D
:10247000491C42F8081B491C42F8081B491C42F839
:10248000081B491C401E42F8081BF1D105EBC10195
:1024900000204860206921696062276160683818FF
:1024A000401A606016B1304600F0AFFA0020BDE877
:1024B000F0810120BDE8F08110B5DFF8FC4594F80B
:1024C0002800002873D1012084F82800D4F8C41013
:1024D000D4F8C000B1F5205F88BF4FF42051FFF75A
:1024E00039FED4F8C80020B9D4F8C4008008C4F874
:1024F000C800DFF8C805C4F8CC0004F1CC0001F036
:10250000F8FB5A20206204F140010020102202FA58
:1025100000F341F8083B401C02FA00F341F8083B85
:10252000401C02FA00F3401C41F8083B8240401C6A
:10253000102841F8082BE9D302202061D4F8C010FC
:10254000D4F8C400E0604218A163143A6263002129
:102550000020626B8218491C51602269521E914210
:1025600018D2626B8218491CD1602269521E9142B6
:1025700010D2626B8218491C51612269521E91422D
:1025800008D2626B8218491CD16120302269521E28
:102590009142DED3012060622069A16B401E606021
:1025A000E068FFF785FDFFF728FF0120206310BDDD
:1025B0002DE9F04585B00546FFF77EFFDFF8F844CA
:1025C000206C854202D3E81C800880000C3000900B
:1025D000009920688842C0F09480206B616888422E
:1025E00009D3401E2063FFF708FF216B491C002818
:1025F000216340F086806068616B401E6060606AA5
:1026000001EBC00252686262012201F8302000280A
:10261000019076D0009800255FF00F0104F1B80218
:1026200052F80839984201D2491EF9D504EBC1028B
:10263000443202E05DB9491C083210290FD21368F8
:102640003BB19D68002DF6D06B6883425DD2AB68CC
:102650000BB90025EFE79D686B688342EAD3002D34
:1026600053D10490A66BE0688019401E0390304659
:102670004568016889BB039AA91991422DD2884601
:102680000291D8F804A0D8F8001031B3626B12F8A8
:102690003120012A21D1E26A91420CBF0127002793
:1026A000FFF7E6FC606BD8F8001000EBC100524663
:1026B00046604146304601F039FB27B1606B029914
:1026C000401A301860630AEB06012846FFF7F0FC59
:1026D000049909B188429DD255460398AE198642A5
:1026E000C5D360680199401C6060606B00EBC1005D
:1026F000616A41600020616B019A01F83200019823
:102700006062002005B0BDE8F0856E68216C301A6B
:102710000C31884238BF00962846FFF7A9FC606B51
:10272000019900EBC100456000980199296068603B
:102730000021A9602D61411941F8040C0098B042B4
:10274000BCBF301AFFF7B4FC019805B0BDE8F085B6
:1027500030B1DFF86413CA6B026002B15060C86325
:10276000704700002DE9F04B86B00446FFF7A4FE49
:10277000E01C80088000DFF84053EE6B00F1040895
:10278000286C804538BF804600E0366846B356F86E
:10279000040C404511D0366816B356F8040C404579
:1027A0000BD03668E6B156F8040C404505D03668C3
:1027B000B6B156F8040C4045E7D196B1306808B17F
:1027C00071684160706808B131680160E86BB042BF
:1027D00040F08C803068E86306B03046BDE8F08B8E
:1027E0000026AF6BE868C0190190001F049004999F
:1027F00001980968441A206800285BD0E868C0196D
:10280000401E039039687A68002914464AD1039B18
:10281000E119994246D2029148680090D1F800C06F
:10282000BCF1000F3ED0686B10F83C00012839D194
:10283000E86A059284450CBF4FF001094FF000098A
:102840004FF00F0C05F1B80E5EF808B95A4502D2E8
:10285000BCF1010CF8D52868821A07F108002A603B
:1028600005EBCC0203684068443203B1586000288D
:1028700014BF03601360686B0A6800EBC200476016
:102880003846009A01F052FAB9F1000F04D0686B93
:102890000299401A381868630098C1192046FFF75A
:1028A00007FC009C0398E7198742ABD30499019871
:1028B0000968441A2068C8B96068404516DB0019E9
:1028C000A0EB0800061D2046FFF7D2FBE868A0EB4E
:1028D0000800E8606869404468616068B0EB08001F
:1028E0001CBF2146FFF7E4FB46F8048C304606B0D7
:1028F000BDE8F08B002818BFFFF75ABE704728B11B
:102900006D49496B01EBC0004068083070476A4967
:10291000CA69521CCA614A6B02EBC00213785B1C85
:10292000137020B1496B01EBC0004068083070475C
:102930000368614953F8083C4A6B02EBC302137801
:10294000022B03DBCB690BB15B1ECB611178491EF7
:1029500011700021016000207047000010B5FFF7E2
:10296000ABFD554A00240F2102F1BC0353F80809BE
:1029700068B102EBC100406C806850B1416880686A
:102980008C4238BF0C4620B1806810B1F6E7491E72
:10299000ECD5A4F10C0010BD00B581B0FFF7DEFF4F
:1029A0004549096AB0F5800F05D9642290FBF2F021
:1029B000484301B000BD48436421B0FBF1F001B0D1
:1029C00000BD3D4AC2F8C00088088000C2F8C400BB
:1029D00070471128384908D3D1F8C420B0EB520F02
:1029E00004D35008C1F8C80070471020C1F8C800CF
:1029F0007047002138B13049496B01EBC000406895
:102A00004068A0F10C010846704730B581B0040061
:102A10001FBF294D686B10F83410002913D002290C
:102A200011DA00EBC40041684868FFF741FB6868B1
:102A3000696A401C6860686B00EBC4025160002149
:102A400000F834106C6201B030BD10B50446206847
:102A5000FFF7DBFF0020206010BD00002DE9F041F2
:102A60000C460025012C804623DB134ED8F800705D
:102A7000002F1EBF706B10F83710002913D00229E9
:102A800011DA00EBC70041684868FFF711FB706876
:102A9000716A401C7060706B00EBC70251600021CE
:102AA00000F8371077626D1C0020A54248F8040B2F
:102AB000DCDBBDE8F081000084B40120C9230008FC
:102AC000B1F90620B0F902309A42A2BFB0F906204F
:102AD000B1F902309A420DDBB1F90420B0F90030AF
:102AE0009A42A2BFB0F90400B1F90010884201DB9C
:102AF000012070470020704762B38B0708D0521E38
:102B000011F8013B00F8013B00F024808B07F6D15F
:102B1000830740F0208000BF103A07D330B4B1E8FB
:102B20003810103AA0E83810F9D230BC530724BF4F
:102B3000B1E80810A0E8081044BF51F8043B40F881
:102B4000043BD20724BF31F8022B20F8022B44BFEC
:102B50000B7803707047083A07D3B1E80810083AB9
:102B600040F8043B40F804CBF7D25307E4E7B1F94F
:102B70000020B0F900309342B8BF0280B0F90220C3
:102B8000B1F902309A42B8BF1A464280B0F9043017
:102B9000B1F904209A42C8BF1A468280B0F90630C3
:102BA000B1F906209A42C8BF1A46C280704781B068
:102BB0000128DDF804C00AD0022816D0042823D04A
:102BC00008282CD010282FD0202834D03AE0D8085C
:102BD00001FB0C0003F00701805CC1F1070120FA42
:102BE00001F202F0010001B07047980801FB0C00EF
:102BF0005900805C01F00601C1F1060120FA01F2E2
:102C000002F0030001B07047580801FB0C00D9071F
:102C1000805C54BF000900F00F0001B0704701FB59
:102C20000C3001B0805C7047481000FB0C3032F86B
:102C3000100001B07047881000FB0C3052F82000E3
:102C400001B07047002001B0704700B9704700B56F
:102C500081B00B46009281888268C088FFF7A7FF89
:102C600001B000BD10B5DFF8C4432068FFF770FD68
:102C70006068FFF76DFDA068FFF76AFD0020A060A7
:102C800060602060E060206110BD000001F07F43C3
:102C900013F1807F00D1704770B4C2F1FF0301F4DB
:102CA0007F46DBB2CDB25E43C4B213FB05F512FB27
:102CB000045400F47F4502FB05652D0A240405F445
:102CC0007F4555EA146401F47F0600F47F055E43F6
:102CD000090E02FB0565000E13FB01F12D0A12FB24
:102CE000001005F47F0500042C4300F07F402043D2
:102CF00070BC7047000000002DE9F34F8BB000203E
:102D00001799009014461E468146086005AB0022C4
:102D100002A903A800F0FDF818B100200DB0BDE82D
:102D2000F08F0598C249B042D8BF0646C148006836
:102D30000A96407C51F8201009910969089100F029
:102D400057FB0790BB480068407C00F069FBBA491C
:102D5000049088421CBFB94988420EBFCDF8189034
:102D60000120069054F8040B1699884782465FEAC2
:102D70001A6800F0BC80009800283ED10B980A9990
:102D80000C9B09EB0005AB480068B0F908008542D0
:102D9000BABF471B054600270B9801EB000B0998AB
:102DA0000190ABF10102039800EB890000EB870072
:102DB00000901946284601F0BBF8012000900798C2
:102DC00018280ADA02460398089B00EB8900F11BD9
:102DD00000EB870001F0DEF80FE0069868B1039879
:102DE00000EB890000EB8707ABEB05053868049919
:102DF00088476D1E47F8040BF8D1914805688DB3DC
:102E00000398029F00EB89000390241F0298039906
:102E100000EB89000290024633462046A84720680E
:102E200000F07F4111F1807F02D10398006806E035
:102E30000399096801F07F4111F1807F01D1029966
:102E40000860241D0398001D03900298001D761E43
:102E50000290E4D1029717981799006840F001009A
:102E6000086052E0039850F82900B8F1FF0F03D131
:102E7000029941F8290043E000F07F4212F1807F7F
:102E8000C8F1FF0133D000F47F4EC1F1FF025FFAB9
:102E900080FC02FB0EFEC9B25FFA8AF312FB0CFC47
:102EA00011FB03C30AF47F4C01FB0CEC4FEA1C2C12
:102EB0001B040CF47F4C4CEA136300F47F0E0AF4FD
:102EC0007F0C02FB0EFE000E01FB0CEC4FEA1A6AAF
:102ED00012FB00F04FEA1C2C11FB0A000CF47F0CD3
:102EE00000044CEA030300F07F4040EA030A029822
:102EF00040F829A017981799006840F00100086071
:102F0000761E09F101097FF42DAF02980DB0BDE8DE
:102F1000F08F2DE9F043454E8046306981B00F4671
:102F200014469946002538B9012030614548706142
:102F300006F1140000F0DDFEF068002801BF4248F1
:102F40000068F060002802D100F07CFAF060B9F16E
:102F5000000F1CBFF068C9F80000B8F1000F0BD0DB
:102F6000306830B9F0688000FFF7FCFB306000B9D2
:102F700001253068C8F8000057B1706830B9F068B2
:102F80008000FFF7EFFB706000B9012570683860C2
:102F900054B1B06830B9F0688000FFF7E3FBB0606F
:102FA00000B90125B0682060284601B0BDE8F08373
:102FB00070B51E4E82B0002814BF00AC00243069EA
:102FC000002538B9012030611E48706106F11400F7
:102FD00000F08FFEF068002801BF1B480068F06019
:102FE000002802D100F02EFAF060306830B9F068A5
:102FF0008000FFF7B7FB306000B90125706830B979
:10300000F0688000FFF7AEFB706000B9012554B195
:10301000B06830B9F0688000FFF7A4FBB06000B979
:103020000125B0682060284602B070BD94B8012028
:103030008800002084000020F7420008E3400008D8
:10304000CCB90120652C0008A0B90120092A0FDAAB
:10305000012A03461AD0022A5AD0042A00F07C80A2
:1030600050F8042B03F8012B491EF9D101207047B9
:10307000112A01DB002070474FEA000250F8043BA0
:1030800022F8023B491EF9D10120704750F8042B69
:10309000D207120E491E35D010F804CB0CF0010CEB
:1030A000491E42EA8C122DD010F804CB0CF0010C12
:1030B000491E42EA4C1225D010F804CB0CF0010C4A
:1030C000491E42EA0C121DD010F804CB0CF0010C82
:1030D000491E42EACC0215D010F804CB0CF0010CCA
:1030E000491E42EA8C020DD010F804CB0CF0010C02
:1030F000491E42EA4C0205D010F804CB0CF0010C3A
:103100004CEA0202002903F8012BBFD101207047CD
:1031100050F8042B9207120E491E16D010F804CB5B
:103120000CF0030C491E42EA0C120ED010F804CB2E
:103130000CF0030C491E42EA8C0206D010F804CBB6
:103140000CF0030C4CEA0202491E002903F8012B83
:10315000DED10120704700BF50F8042B1207120E79
:10316000491E06D010F804CB0CF00F0C4CEA0202FA
:10317000491E002903F8012BEED101207047000001
:103180002DE9F041069F80460E4607B947461D6867
:10319000092A43DA521E072A00F29380DFE802F080
:1031A000045291709191918058F8040BA847C40182
:1031B000761E2ED058F8040BA847761E44EA8014D9
:1031C00027D058F8040BA847761E44EA401420D0B4
:1031D00058F8040BA847761E44EA001419D058F892
:1031E000040BA847761E44EAC00412D058F8040B1A
:1031F000A847761E44EA80040BD058F8040BA84771
:10320000761E44EA400404D058F8040BA84704434F
:10321000761E002E07F8014BC6D152E0112A06DABD
:10322000D3F810C0BCF1000F04D002233EE0002010
:10323000BDE8F08158F8040BA847761E27F8020B6A
:10324000F8D13EE058F8040BA8478401761E12D04E
:1032500058F8040BA847761E44EA00140BD058F81F
:10326000040BA847761E44EA800404D058F8040BE7
:10327000A8470443761E002E07F8014BE2D120E058
:1032800058F8040BA8470401761E04D058F8040B24
:10329000A8470443761E002E07F8014BF0D110E03A
:1032A000D3F810C0BCF1000F04D0012332463946D8
:1032B000E04706E058F8040BA847761E07F8010B14
:1032C000F8D10120BDE8F08110B582B0002400944F
:1032D000FFF756FF02B010BD30B50025022881B0BF
:1032E0000C4607DA00F014F920B1C268926A214650
:1032F00090470546284601B030BD10B5002402288D
:1033000007DA00F005F920B1C268926A01219047FE
:103310000446204610BD10B50024022807DA00F04C
:10332000F7F820B1C268926A02219047044620460D
:1033300010BD10B50024022807DA00F0E9F820B12A
:10334000C268926A032190470446204610BD10B51A
:103350000024022807DA00F0DBF820B1C268926A84
:10336000042190470446204610BD10B500240228D1
:1033700007DA00F0CDF820B1C268926A08219047C0
:103380000446204610BD10B50024022807DA00F0DC
:10339000BFF820B1C268926A0921904704462046CE
:1033A00010BD10B525480068407C0024022807DACB
:1033B00000F0AEF820B1C268926A0121904704463D
:1033C000204610BD10B51D480068407C002402282E
:1033D00007DA00F09DF820B1C268926A0221904796
:1033E0000446204610BD15480068407C092173E75B
:1033F000134951F82000C268926A082110470F480B
:1034000000B50068407C81B000F082F830B1C2683D
:10341000D26A01B05DF804EB0221104701B000BD93
:10342000074951F82000006940687047044951F885
:103430002000006900687047000000008400002040
:103440008800002070B500240125284600F060F8AF
:10345000002620B1C268926A032190470646B44212
:10346000B8BF34466D1EF0D5204670BDB0B34108DC
:10347000490001D1012070478108890001D1022053
:103480007047C108C90001D1032070470109090133
:1034900001D1042070474109490101D1052070473D
:1034A000010A090201D108207047410A490208D0E7
:1034B000010B090305D0C10BC90302D0010C09049B
:1034C00001D110207047810C890401D1122070476E
:1034D00010F07F4F01D1182070472020704710B5A1
:1034E000FFF7C4FF0024012808BF01240ED0811E6D
:1034F000072938BF082409D3A0F10901082938BFDA
:10350000102403D31138102838BF2024204610BDC2
:10351000022801DB00207047694951F8200000E0D3
:103520000068A8B1C168096891B1006800280FD08F
:10353000C168096861B10068002809D0C1680968DC
:1035400031B10068002803D0C16809680029E7D1BB
:103550007047FFF7FDB8F0B51E46022E81B0044655
:103560000F46154603DA1C20FFF7FCF810B90020BF
:1035700001B0F0BD0FB1076115E0514951F82610B7
:1035800089B10A686AB109680A6852B111460A68C5
:103590003AB111460A68002A03D011460A68002A87
:1035A000F1D10969016186618582C46000210160F1
:1035B0004160816001B0F0BD8169414A52F821301B
:1035C000834204BF036842F82130416809B10268B0
:1035D0000A60016809B142684A60002101604160E7
:1035E000704770B400284CD081690C46022C48DA30
:1035F000334A52F8243013B942F8240049E05C6899
:103600000CB35B685C68ECB123465C68DCB12346B4
:103610005C68C4B123465C68002CF2D113E01B68DF
:103620007BB3DE683668B54213DA1B684BB3DE68DD
:103630003668B5420DDA1B681BB3DE683668B542E2
:1036400007DA1B68EBB1C468DE6825683668B542E6
:10365000E5DBDE683668AE420AD1858A2668012D30
:1036600006D11D6825B12B46DD682D68B542F8DA14
:103670005C68002C1DBF20605968416042F8210041
:1036800002E070BC012070475860984208BF0023D8
:103690000360002070BC704730B581B01C46FFF756
:1036A0005AFF050009D0FFF79CFFE868006820B9C1
:1036B0000448006800EB84008565284601B030BDF1
:1036C0008800002084000020F0B581B004460D463B
:1036D0001646FFF71CF900901621009A1268D2686E
:1036E000526A00209047074600A8FFF721F93800EA
:1036F00003D0324629462046B84701B0F0BD2DE937
:10370000F14FB148006884B01E46437CDDF840802C
:103710000F988946934600224146FFF71CFF002779
:10372000040049D0206980688047FFF7D8FE8246B0
:103730000AFB0BF0C01DC0080290FFF72DF90E9D8B
:10374000E90705D4411000EB9170801000EB4000B8
:10375000012E0BDA029900291ABF1838B0FBF1F0DC
:10376000002071420E468642C8BF0646E80707D4CD
:103770000498009733465A46494600F077FD0746BD
:10378000012E06DA2046FFF7E4FE002005B0BDE872
:10379000F08F029870431830E90702D5FFF7AAF8B6
:1037A00001E000F017F905000AD12046FFF7D1FE2D
:1037B00017B13846FFF729F9002005B0BDE8F08FB2
:1037C000FFF7A5F80190046001990498888001989A
:1037D000A0F806900198A0F808B0019846810199D8
:1037E0000298C8600198C0F810A00198476101A82C
:1037F000FFF79EF8C4F81080A56073480068407C0D
:10380000A06105B02846BDE8F08F10B582B0002455
:1038100060B1FFF77CF8009000680069806880471D
:10382000FFF75DFE044600A8FFF782F8204602B0CD
:1038300010BD10B5040082B018D063480068006E57
:10384000A04208BF00F04CFD2046FFF760F8009052
:10385000406908B100F050FD00980068FFF779FE5C
:1038600000A8FFF765F82046FFF7CFF802B010BDBB
:103870002DE9F047044654480068407C8846534987
:1038800051F8207084B091469A460026F96809687C
:10389000042903D03F68002FF8D100E017B9FFF7E3
:1038A00037FE0746FA68D26A01213846904705007C
:1038B00013D03F690C9EB868804710F1010F04BF18
:1038C000434F46F0010602970195009653464A463B
:1038D00041462046FFF713FF0646304604B0BDE8D8
:1038E000F08770B5384D04002868066E82B004D1A8
:1038F00000F0F6FC304602B070BD0EB100F0F0FCF6
:1039000002F0B6FA2046FFF702F800902868046635
:1039100000980068FFF765FE00A8FFF709F802F0BD
:10392000EDFB02F019FF304602B070BD2DE9F04307
:10393000040083B043D0002002F0CAFF05462248AD
:103940000068066E2046FEF7E2FF0090006880697E
:1039500002F0D4FF074600980099B0F90480B0F94E
:103960000690ADF80480BDF804000989ADF8069012
:103970000818401E0099ADF808004989BDF80600F6
:103980000818401EADF80A0002F06CFA00A8FEF715
:10399000CFFF01A801F04FFD40B14A464146204605
:1039A00003F058FB01F0F8FC0028F6D1384602F08D
:1039B000A5FF3046FFF795FF284602F089FF03B0C8
:1039C000BDE8F08300000000840000208800002093
:1039D000DCA8010830B581B00446FEF78BFF050076
:1039E00009D0FEF794FF00902246002100F01AF85B
:1039F00000A8FEF79DFF284601B030BD002203F06D
:103A000053BB50F8041B61B150F8042BD30744BFDB
:103A1000A9F101039A18002342F8043B091FFAD1C7
:103A2000EFE7704770B402E000F8011B521EBAB114
:103A300010F0030314D000F8011B521E18BF10F041
:103A400003030DD000F8011B521E18BF10F0030332
:103A500006D000F8011B521E18BF10F00303E3D17B
:103A600093084FD04FF001344C43042B02F0030273
:103A700038DB5D0803EB9575AD0815F003060AD039
:103A800040F8044B40F8044B1B1F40F8044B761ED3
:103A900040F8044BF4D1AD0800F0238040F8044B0B
:103AA00040F8044B40F8044B40F8044B40F8044BFA
:103AB00040F8044B40F8044B40F8044B40F8044BEA
:103AC00040F8044B40F8044B40F8044B40F8044BDA
:103AD00040F8044B103B40F8044B6D1E40F8044B7B
:103AE000DCD17BB15B1E40F8044B0BD05B1E40F871
:103AF000044B07D05B1E40F8044B03D05B1E40F81C
:103B0000044BEFD17AB1521E00F8011B0BD0521EAC
:103B100000F8011B07D0521E00F8011B03D0521EF3
:103B200000F8011BEFD170BC70477047FEE7FEE75D
:103B3000FEE7FEE7704770477047704710B5714C5D
:103B40000020C4F89400702200212046FFF76AFF8D
:103B500004F18800BDE8104008220021FFF762BF91
:103B60002DE9F041054682B00E46174698460420DE
:103B700002F019FB04466348D0F88400C16C006D64
:103B80004D198619CF198044ADF80050ADF8047076
:103B9000ADF80260ADF8068000A801F04CFC48B119
:103BA00043463A463146284602F07BFB01F0F4FBDF
:103BB0000028F5D1204602F0F6FA02B0BDE8F08107
:103BC0002DE9F04182B00021002003F09DFA04208D
:103BD00002F0E9FA80464B484B4AD0F88400C16CA9
:103BE000006D5518161843F6FF7257181418ADF8E3
:103BF0000050ADF80470ADF80260ADF8064000A8C2
:103C000001F019FC48B123463A463146284602F0F5
:103C100048FB01F0C1FB0028F5D1404602F0C3FA91
:103C200002B0BDE8F08110B5394801684908490083
:103C300001600121374881603749016000683749D8
:103C4000884200D0FEE72F4CD4F8940078B90120C8
:103C5000C4F8940003F060FA03F06AFA2B48206776
:103C6000D4F89000606704F17000C4F890002E2032
:103C700084F8780003F0B4FAD4F88400011DC1631D
:103C80008063006400F10801616104F10801407C77
:103C900004EB8000D0F88800C268126B90470FF2E6
:103CA00084006066D4F88000E061D4F884000830B5
:103CB00060610120207603F095FAA064032084F867
:103CC00068006FF0704020636063002002F0EFFD39
:103CD0006FF07F4002F0EFFD1148E06702F046FD13
:103CE00004460021002003F089FA02F0FAF8204689
:103CF00010BD0449D1F890204260C1F8900070478F
:103D0000000000000000002001C0FFFF3D3B000854
:103D1000002000E000300240C2A507F4CDB5E8B5B0
:103D2000ACA701080F620008B161000881423ABFE8
:103D300053189842FEF7E0BE8018990707D0521E2C
:103D400024BF13F8011D00F8011DF6D87047810744
:103D50001CD1103A07D330B433E93210103A20E9BD
:103D60003210F9D230BC1032121F24BF53F8041D98
:103D700040F8041DF8D838BF121D521E24BF13F896
:103D8000011D00F8011DF8D8704700BF083A07D39D
:103D900033E90210083A40F804CD40F8041DF7D288
:103DA0000832EAE72DE9F84F82B080460D980C9D65
:103DB000C068D0F814B09246426A1000894606D016
:103DC00001210DA890470028844640F0A680704845
:103DD0000068407CFFF70CFB09280090B8BF012465
:103DE00003DB1128B4BF02240424029800264845AE
:103DF000C0F29B80012C05D0022C6FD0042C00F067
:103E00007A8084E00098401E072800F28080DFE876
:103E100000F004213F3F585858584746BA4576DBD2
:103E20000D984A463946D84729784FF67F7222FACC
:103E300006F3C6F1070219409040084328707F1C22
:103E4000701C00F0F801BA4505EBE00540FA01F6F8
:103E5000E6DA5CE04746BA4559DB0D984A463946F2
:103E6000D84729784FF63F727300DA40114072004C
:103E7000C2F106029040084328707F1C701C00F0BD
:103E8000FC01BA4505EBA00540FA01F6E5DA3EE093
:103E90004746BA453BDB0D984A463946D84729780C
:103EA0000F22B3009A401140B200C2F104029040C8
:103EB000084328707F1C7519BA4586F00106EADAB6
:103EC00025E04746BA4522DB0D984A463946D84791
:103ED0007F1CBA4505F8010BF6DA18E04746BA45EB
:103EE00015DB0D984A463946D8477F1CBA4525F858
:103EF000020BF6DA0BE04746BA4508DB0D984A4656
:103F00003946D8477F1CBA4545F8040BF6DA0298C3
:103F100009F10109484508DB6CE701955346029811
:103F200000904A460D984146E04703B0BDE8F08F47
:103F300030B5174C2468B4F90850A842B8BF2846D9
:103F4000B4F90C509542B8BF2A46824283B01BDBBD
:103F5000B4F90A50B4F90E40A942B8BF29469C42B0
:103F6000B8BF23468B4211DA03B030BD2C46E5685A
:103F70002D6825B1042D1CBF2568002DF6D10194B4
:103F8000069C0094FFF70EFF03B030BD079CEEE7E0
:103F9000840000202DE9F0470C46012CC0F29F80E0
:103FA000D3F80480092A26DA521E072A00F29780E5
:103FB000DFE802F0043F956495959589611E00EB5A
:103FC000E10A00EB8400061F01F007051AF80199C9
:103FD000802020FA05F7FFB207EA0901C5F10702C0
:103FE00021FA02F0C04746F80409E5B91AF8019928
:103FF0000725012719E0112A71DA5E69310005D021
:10400000022322460146B047BDE8F08700EB440A90
:1040100000EB84063AF8020DC047641E46F8040D12
:10402000F8D1BDE8F0876D1E7F00641ED3D1BDE8D6
:10403000F087611E00EBA10A00EB8400061F01F06F
:1040400003051AF80199C020690020FA01F7FFB2B0
:10405000680007EA0901C0F1060221FA02F0C04730
:1040600046F8040925B91AF801990325032701E048
:104070006D1EBF00641EEAD1BDE8F087611E00EB33
:10408000610A00EB8400061F01F001051AF801998E
:10409000F020A90020FA01F7FFB2A80007EA090101
:1040A000C0F1040221FA02F0C04746F8040925B91C
:1040B0001AF8019901250F2701E06D1E3F01641ECA
:1040C000EAD1BDE8F08704EB000A00EB840600BFEC
:1040D0001AF8010DC047641E46F8040DF8D1BDE87A
:1040E000F0877047B0F90030C91AB0F90230D21A1F
:1040F000036903FB020000EBE100802310F8142F9A
:1041000001F0070123FA01FC4CEA0201017070473B
:1041100070B5B0F90040091BB0F90440A1422CDA97
:10412000B0F90240121B0469CD1004FB02002818EC
:1041300000F114045818401EC5EBE005FF2201F001
:10414000070600F0070022FA06F1C0F1070002FAA4
:1041500000F62078F6B215B9314008430CE06D1E28
:104160000843012D04F8010B04DB2946204602F028
:1041700097FF2C1920783043207070BDB0F90610DD
:10418000026951431430FFF739BC000070B4B0F934
:1041900006500B68B0F90440AA421BDA0669DD102C
:1041A00006FB020028181430A34213DA621EC5EB86
:1041B000E20210F8014B03F00705AC4006E000BF37
:1041C00010F8014B0833521E23F00703E4B224B960
:1041D000002AF5D170BC0020704725060FD464007A
:1041E0005B1C25060BD464005B1C250607D4640009
:1041F0005B1C250603D464005B1C2506EFD5E4B2E6
:10420000FF2C10D066061D460ED56D1CA6060BD5DC
:104210006D1CE60608D56D1C260705D524016D1C0E
:104220006606F2D400E0DD1D05F00704072C16D168
:1042300000E00835521E12D410F8014BFF2CF8D0C4
:1042400020060CD56D1C600609D56D1CA00606D590
:104250006D1CE00603D524016D1C2006F2D40B6012
:10426000E81A70BC401C7047FEF7CFBB2DE9F04345
:104270000446164606F10F0000119846470007FB5A
:1042800008F081B00D461430FFF7A4FB5FEA000987
:1042900017D0FEF73CFB0090048000984580009802
:1042A00086800098A0F8068000990FF21C008860B4
:1042B0000120009988810098076100A8FEF738FB6B
:1042C000484601B0BDE8F083E54000081141000810
:1042D0007D41000800000000694200088D4100088F
:1042E00000B581B002F0A2FF01F008FF01B05DF857
:1042F00004EB01F0B7BD704730B581B00446FEF75E
:1043000006FB00908089451E0098858100A8FEF775
:104310000FFB2DB215B92046FEF777FB01B030BD7B
:104320002DE9F041069F04460D4616464FEA030864
:10433000D4F808C0DCF804C043463246294620467B
:10434000E047761C7F1EF3D1BDE8F08130B504460E
:10435000DFF8FC0A0568696C83B021B9204602F0D9
:1043600087FF03B030BD01A80822FEF7C5FBDFF8C8
:10437000E40AC06D00B9A86CFEF7C9FA0090B0F964
:104380000220B0F9001001A802F08CFF00A8FEF78F
:10439000CFFA214601A8FEF7EAFB01A802F068FF68
:1043A00003B030BD2DE9F04107460E4686B0904679
:1043B0003046FEF7A4FA806AC0034CBF4FF4804534
:1043C0002025002E00F0A6803046FEF7A0FA0190CE
:1043D000846AA00740F19B80019A394604A802F044
:1043E0006FFF002800F0938040F6010707EA040001
:1043F000012809D10198026A81692B4604A800F0BE
:10440000FDF90198C66957E03046FEF778FA00904A
:10441000806A810746D5BDF91410BDF9102091427C
:10442000A2BFBDF91610BDF9122091423ADB384007
:10443000012837D03046FEF76AFA0090024604A9F8
:1044400002A802F03DFFBDF90C00BDF9081088423A
:10445000A2BFBDF90E00BDF90A1088421FDB00980B
:10446000806A44F22001084207D0009800F1080158
:1044700002AA083002F054FF11E00098083002A9A7
:104480000822FEF739FB00980099806A2843886269
:10449000DFF8C009818E491C818602F071FF00A8F7
:1044A000FEF746FA0198C66906E000A8FEF740FA52
:1044B0003046FEF724FA066A4EB3464527D030460A
:1044C000FEF725FA009090F828008007EDD5009AB5
:1044D00004A902A802F0F4FE0028E6D000A8FEF726
:1044E00027FA2A4602A9304600F017F8304602F0B3
:1044F0006DFF0700DCD02A4602A9384600F04CF9CF
:104500003846FEF7FCF9076A002FF4D1D0E701A87E
:10451000FEF70EFA06B0BDE8F08170B584B006462D
:104520000C461546FEF7EBF90090806A810748D5E6
:10453000B4F90410B4F900209142A2BFB4F90610F6
:10454000B4F9022091423CDB40F601010840012809
:1045500037D03046FEF7DBF900900246214601A82D
:1045600002F0AEFEBDF90800BDF904108842A2BFFA
:10457000BDF90A00BDF9061088421FDB0098806A69
:1045800044F22001084207D0009800F1080101AA76
:10459000083002F0C5FE11E00098083001A9082299
:1045A000FEF7AAFA00980099806A28438862DFF82B
:1045B000A408818E491C818602F0E2FE00A8FEF765
:1045C000B7F904B070BD0000DFF8840810B50068CA
:1045D000DFF8804890F8541084B029B104F1080045
:1045E000FFF7B4FE04B010BD806CFEF790F90190A7
:1045F00002A801990822FEF77FFA01A8FEF798F9B0
:10460000E46DC4B102E000BFFEF792F92046FEF768
:104610007EF9009090F82800800701D400A808E0F7
:10462000009902A8FEF7A3FA00988469002C00A85C
:10463000EAD1FEF77DF902A8FFF788FE04B010BDAD
:1046400070B50D0084B004464DD0FEF760F90190BE
:10465000002001990862019885612846FEF757F904
:104660000290019890F8280000F008050298C669A9
:104670002EB9C46101A8FEF75BF902A831E030460B
:10468000FEF745F900907DB990F8280000070BD59A
:10469000019806620298C46101A8FEF749F902A8D0
:1046A000FEF746F900A81CE002A8FEF741F900A8B1
:1046B000FEF73EF93046FEF722F900900098066AB0
:1046C0000EB904620CE03046FEF719F9002DF4D162
:1046D00090F828100907F0D5009804620198066246
:1046E00001A8FEF725F904B070BD70B50446FEF7C9
:1046F00006F90546A869A0B1FEF701F90646F16979
:10470000A14205D10846FEF7FAF8006AF06170BDD3
:1047100039B10846FEF7F3F8016AA142F8D1296AD7
:10472000016270BD10B50446DFF82807C06B02E0D7
:10473000FEF7E5F8406910B1A042F9D1012010BDA3
:1047400010B5040082B025D0FEF7E1F8009090F893
:10475000280080071BD50098406A00281EBFDFF89C
:10476000E8180968A14204D0FFF763F80099002017
:104770004862204602F02AFE040008D02046FFF7D7
:10478000DFFF2046FEF7BBF8046A002CF6D100A834
:10479000FEF7CEF802B010BD70B5040084B00D462F
:1047A000164629D0FEF7B3F8009090F8280080074D
:1047B00005D5009A294601A802F082FD20B900A87B
:1047C000FEF7B6F804B070BD00A8FEF7B1F83246A7
:1047D00001A92046FFF7A1FE204602F0F7FD0400E4
:1047E0000AD0324601A92046FFF7D6FF2046FEF741
:1047F00086F8046A002CF4D104B070BD2DE9F041B4
:104800000F0086B006461446984659D03846FEF743
:104810007EF80090856AA8074FD5009A314602A815
:1048200002F04EFD002848D040F601002840012843
:1048300009D10098026A8169434602A8FFF7DEFFAA
:104840000098C6690EE0424602A93846FFF765FEA9
:104850000098C66906E001A8FEF76AF83046FEF740
:104860004EF8066A4EB3A64227D03046FEF74FF800
:10487000019090F828008007EDD5019A02A904A8BC
:1048800002F01EFD0028E6D001A8FEF751F84246CE
:1048900004A93046FFF741FE304602F097FD0700BD
:1048A000DCD0424604A93846FFF776FF3846FEF7CB
:1048B00026F8076A002FF4D1D0E700A8FEF738F8F1
:1048C00006B0BDE8F081F0B50D0087B0064614468D
:1048D00000F0A7802846FEF71AF80190876AB8070B
:1048E00040F19C80019A314604A802F0E9FC0028BE
:1048F00000F0948040F6010606EA0700012809D17D
:104900000198026A8169202304A8FFF777FF0198C4
:10491000C56958E02846FDF7F2FF0090806A8107DC
:1049200047D5BDF91410BDF910209142A2BFBDF9C1
:104930001610BDF9122091423BDB3040012838D0DF
:104940002846FDF7E4FF0090024604A902A802F001
:10495000B7FCBDF90C00BDF908108842A2BFBDF933
:104960000E00BDF90A10884220DB0098806A44F2EC
:104970002001084207D0009800F1080102AA08307F
:1049800002F0CEFC12E00098083002A90822FEF7DF
:10499000B3F800980099806A40F020008862DFF840
:1049A000B404818E491C818602F0EAFC00A8FDF760
:1049B000BFFF0198C56906E000A8FDF7B9FF2846CA
:1049C000FDF79DFF056A4DB3A54227D02846FDF7A8
:1049D0009EFF009090F828008007EDD5009A04A96A
:1049E00002A802F06DFC0028E6D000A8FDF7A0FFA9
:1049F000202202A92846FFF790FD284602F0E6FC97
:104A00000600DCD0202202A93046FFF7C5FE304662
:104A1000FDF775FF066A002EF4D1D0E701A8FDF777
:104A200087FF07B0F0BD70B5060084B00C46154690
:104A30004ED03046FDF76BFF0090866AB00740D538
:104A40002DB100992A4601A802F03AFC04E0009931
:104A500001A80822FEF750F801A92046FEF730F819
:104A600078B3F0071FD40098B0F90200002D04D0ED
:104A7000B5F902108142A8BF0846B4F9021081427C
:104A800009DABDF90600B4F90620411E914218DA90
:104A9000401EE08015E0BDF90A00B4F90610884216
:104AA0000FDAE0800DE00098C66956B101AA2146F0
:104AB0003046FFF7B8FF3046FDF721FF066A002EAB
:104AC000F4D10098066A00A8FDF732FF002EB0D19D
:104AD00004B070BDF0B507460026002F83B00C4629
:104AE000154636D03846FDF712FF0090876AB807A2
:104AF00028D52DB100992A4601A802F0E1FB04E077
:104B0000009901A80822FDF7F7FF01A92046FDF74B
:104B1000D7FFB8B1F80705D4BDF80800401C2080C5
:104B200001260FE00098C76967B101AA21463846FF
:104B3000FFF7D0FF00B101263846FDF7E0FE076A17
:104B4000002FF2D10098076A00A8FDF7F1FE002FB0
:104B5000C8D1304603B0F0BD70B5060084B00C4635
:104B6000154633D03046FDF7D2FE0090866AB00776
:104B700025D52DB100992A4601A802F0A1FB04E039
:104B8000009901A80822FDF7B7FF01A92046FDF70B
:104B900097FFA0B1F00704D4BDF80400401EA08028
:104BA0000DE00098C66956B101AA21463046FFF7CC
:104BB000D3FF3046FDF7A3FE066A002EF4D100981D
:104BC000066A00A8FDF7B4FE002ECBD104B070BD7C
:104BD000002818BF02F004BC704700B585B00091F2
:104BE000019000A902F0FCFB05B000BD00224A8044
:104BF0000A8003888288D21A8A80C2884088101A64
:104C0000C880704770B5040086B00E465BD0FDF7D3
:104C10007EFE0090856AA80752D5009902A8082256
:104C2000FDF76AFFE80344BF2046FFF789FD86B120
:104C300004A831460822FDF75FFF0098B0F9022072
:104C4000B0F9001004A802F02DFB04A902A8FDF79A
:104C50008EFF264603E0064601A8FDF769FE3046B2
:104C6000FDF755FE019090F82800800703D401A8B5
:104C7000FDF75EFE24E0019902A8FDF778FF019898
:104C800080690028E7D101A8FDF752FEDFF8000B8C
:104C900081698E421CBFC069864211D140F6010075
:104CA0002840012807D10098026A8169202302A8C0
:104CB000FFF7A4FD04E0202202A92046FFF72DFC07
:104CC00000A8FDF735FE06B070BD00219AE72DE97A
:104CD000F04F87B05F4C804689461198E16C109F79
:104CE00092469B4641EA00053FB9608E58B358484A
:104CF0000068407C04EB8000876917F1010F08BF52
:104D0000002720D0FFB13846FDF701FE0190BAF12F
:104D1000000F0199B0F90000B1F9021080448944F4
:104D200005D1019AB2F90420101A00F1010ABBF171
:104D3000000F05D10198B0F90600401A00F1010BEF
:104D400001A8FDF7F5FD13982C30FEF743FE060091
:104D500079D0608E401C60863046FDF7D8FD00900B
:104D6000A0F800800098A0F802900AEB08000099D3
:104D7000401E88800BEB09000099401EC8800099F6
:104D800012980861DFF8541B0098806A2940084394
:104D90000099886200A8FDF7CBFDE06B58B1FDF7E4
:104DA000AEFD80463046FDF7AAFDD8F814104161EB
:104DB000C8F8146000E0E66339463046FFF740FC6F
:104DC000A8061DD5224F3868866430468146FDF717
:104DD00096FD80690028F9D1A16989451DBF012090
:104DE000E169894501F08AFD01F0B6FC3046FDF726
:104DF00086FD3968B0F90020CA64B0F90200086580
:104E0000E80702D5A06D401CA065680644BF304687
:104E100002F006FBA8070FD53046FDF778FD00909D
:104E20000099806A40F00200886200A8FDF780FDCA
:104E300000213046FFF7E6FE01200290039602A90A
:104E4000304602F0CDFA304607B0BDE8F08F0000E2
:104E50008400002088B60120F0B5050087B000F07E
:104E6000AC80DFF82C49E06B03E000BFFDF747FDA5
:104E70004069002800F0A180A842F7D128460746E3
:104E8000FDF73DFD80690028F9D1A0690026874221
:104E90001FBF0126E06987424FF0FF360B200290CA
:104EA000039502A9284602F09BFA284602F0FAFA76
:104EB0002846FDF72CFD0190406A08B1FEF7B9FCC9
:104EC00000206066A06B04EB8000816AA94204BFE9
:104ED00000218162016AA94204BF00210162206CA5
:104EE00038B14168A94204BF002141600068002830
:104EF000F7D10721284602F01EFB019FF869FFF752
:104F0000ABFFF8690028F9D12846FDF700FD0090B5
:104F1000816949B1026A2023FFF770FC2846FFF738
:104F2000E4FB00990020886100A8FDF701FDE06B1B
:104F300050B1FDF7E4FC07467869A842F8D128464D
:104F4000FDF7DDFC406978610198806AC10702D5F0
:104F5000A16D491EA165800602D5A08E401EA086C7
:104F600001A8FDF7E5FC608E401E60862846FDF72F
:104F70004CFD04EB8600866906B9E66BDFF8345C0D
:104F80002868866430460746FDF7B9FC806900282A
:104F9000F9D1A1698F421DBF0120E1698F4201F063
:104FA000ADFC01F0D9FB3046FDF7A9FC2968B0F94A
:104FB0000020CA64B0F90200086507B0F0BD10B562
:104FC0000446FDF79CFC80690028F9D1DFF8C01782
:104FD0008A6994421FBF0120C9698C424FF0FF309B
:104FE00010BDF0B5DFF8F84806002068856C81B088
:104FF00004BFDFF89C17CE6B866430460746FDF78A
:105000007EFC80690028F9D1DFF884178A6997420D
:105010001DBF0120C9698F4201F070FC01F09CFBAB
:105020003046FDF76CFC2168B0F90020CA6401B07D
:10503000B0F9020008652846F0BDDFF8780B00687B
:10504000806C704700000000ACB901202DE9F041F0
:10505000DFF83C8786B0D8E90201CDE90101D8F834
:10506000100030B9B8F80000ADF80400B8F802003C
:1050700015E0B8F80C00401CADF80400B8F80A00C0
:10508000BDF90410ADF80600B8F90400884208DA4A
:10509000B8F80000ADF80400B8F80E00401CADF8F8
:1050A0000600B8F90600BDF906108842C0F2688112
:1050B000DFF8005B2868806CFDF729FC0590B8F9E3
:1050C0000010BDF9040088425CD1B8F80600ADF8C4
:1050D0000A00B8F80400ADF808002868806C0028C1
:1050E00000F04A80FDF70BFC0646376A002F40D0DF
:1050F0003846FDF70CFC0090876AB80732D5009956
:1051000003A80822FDF7F8FC03A901A8FDF7D8FCC5
:1051100040B3F80718D4009ABDF90610B2F902207E
:10512000BDF90A00914208DABDF90E104A1E82420A
:1051300018DA481EADF80A0014E0BDF912108142D9
:1051400010DAADF80A100DE00098C76957B103AA4C
:1051500001A93846FFF767FC3846FDF7D0FB076A20
:10516000002FF4D10098076A00A8FDF7E1FB002F9B
:10517000BED1B0690028B5D10598C069002201A947
:10518000FFF751FCBDF80400ADF808002868806CFA
:1051900018E00098C46964B103AA01A92046FFF78A
:1051A00099FC00B101272046FDF7A9FB046A002CF9
:1051B000F2D10098046A00A8FDF7BAFB54B9002F99
:1051C000E0D1B06908B3FDF79AFB06460027346AC0
:1051D000002CF6D02046FDF79AFB0090846AA007C9
:1051E000E7D5009903A80822FDF786FC03A901A8CA
:1051F000FDF766FC0028DCD0E007CAD4BDF810003B
:10520000401CADF804000127D3E70598C7690026C4
:1052100097B33846FDF77BFB0090876AB80722D525
:10522000009903A80822FDF767FC03A901A8FDF770
:1052300047FCC0B1F80706D4BDF81000401CADF81B
:10524000040001260FE00098C76967B103AA01A90D
:105250003846FFF73FFC00B101263846FDF74FFB0B
:10526000076A002FF2D10098076A00A8FDF760FBDB
:10527000002FCED1002E85D1BDF90410B8F904005D
:10528000ADF80800884207DADDE90101C8E902014A
:1052900005A8FDF74DFBFBE62868D0F84800A8B349
:1052A000FDF72DFB05462E6A6EB33046FDF72FFB4A
:1052B0000090866AB0071FD5009903A80822FDF761
:1052C0001BFC03A901A8FDF7FBFBA8B1F00705D45F
:1052D000BDF80C00401EADF808000DE00098C6694E
:1052E00056B103AA01A93046FFF736FC3046FDF758
:1052F00006FB066A002EF4D10098066A00A8FDF7A6
:1053000017FB002ED1D1A8690028C9D10598C5691D
:105310006DB32846FDF7FBFA0090856AA8071FD5F4
:10532000009903A80822FDF7E7FB03A901A8FDF7F0
:10533000C7FBA8B1E80705D4BDF80C00401EADF8C6
:1053400008000DE00098C56955B103AA01A92846D7
:10535000FFF702FC2846FDF7D2FA056A002DF4D1CA
:105360000098056A00A8FDF7E3FA002DD1D105A841
:10537000FDF7DEFAD8F8100044F62161884203DB1D
:10538000002006B0BDE8F081DDE90101C8E90201B5
:1053900006B00120BDE8F08130B5DFF8445528683B
:1053A00090F85400002885B043D0DFF8E4436069EA
:1053B000022805DA2069401C2061FFF747FE28B962
:1053C0006069401E606105B0002030BD286890F81B
:1053D000541021B104F10800FEF7B8FF28E0806CFA
:1053E000FDF795FA019002A801990822FDF784FBC8
:1053F00001A8FDF79DFAE46DBCB101E0FDF798FA54
:105400002046FDF784FA009090F82800800701D428
:1054100000A808E0009902A8FDF7A9FB009884699C
:10542000002C00A8EAD1FDF783FA02A8FEF78EFF50
:10543000012005B030BD70B5DFF8A454D44C064649
:10544000286890F854108AB051BB806CFDF75FFA61
:10545000019004A801990822FDF74EFB01A8FDF771
:1054600067FAE46DB4B102E000A8FDF761FA2046E6
:10547000FDF74DFA009090F82800800707D50099B5
:1054800004A8FDF774FB00988469002CECD100A8F7
:10549000FDF74EFA04A8FEF759FF01200AB070BDCF
:1054A0006169491C0229616180F2D080806CFDF73E
:1054B0002EFA02904FF0FF30206194F8300050B384
:1054C000029906A808310822FDF716FB1EB13146E5
:1054D00006A8FDF74CFB2868416C59B3029803906D
:1054E000082208A8FDF708FBE06D30B103A8FDF71E
:1054F0001FFAE06DFDF70BFA03900398B0F9022054
:10550000B0F9001008A801F0CDFE08A906A8FDF723
:105510002EFB03A80FE0029890F82800800702D520
:10552000029906A8CFE76069401E606102A8FDF7F6
:10553000FFF991E002A8FDF7FBF9E66D0EB303E079
:10554000064600A8FDF7F4F93046FDF7E0F90090B3
:1055500090F82800800703D400A8FDF7E9F978E067
:10556000009906A8FDF703FB009880690028E7D1A1
:1055700000A8FDF7DDF9A06986421CBFE0698642FC
:1055800067D12868866C03E0064600A8FDF7D0F9CD
:105590003046FDF7BCF9009090F828008007DBD575
:1055A000009906A8FDF7E3FA009880690028EBD17E
:1055B00000A8FDF7BDF9A06986421CBFE0698642DC
:1055C00047D1DDE90601C4E90001286890F85400DC
:1055D000002842D0606902283BDA2069401C206123
:1055E000FFF734FDA8B3286890F8541031B104F1E6
:1055F0000800FEF7ABFE01200AB070BD806CFDF71D
:1056000086F9019004A801990822FDF775FA01A80E
:10561000FDF78EF9E46DB4B102E000A8FDF788F95A
:105620002046FDF774F9009090F82800800707D510
:10563000009904A8FDF79BFA00988469002CECD12E
:1056400000A8FDF775F904A8FEF780FE01200AB056
:1056500070BD6069401E606100200AB070BD00002E
:1056600070B58CB00446FDF752F90190866A056961
:10567000019903A808310822FDF73EFA01A8FDF7B9
:1056800057F9002D00F08280B00740F17F802E2175
:10569000204601F05AFF3E4D95F83000401C85F839
:1056A0003000F00410D50F200790089403A80A904A
:1056B00001F04EFFDFF8101A09680020486407A9BE
:1056C000204601F08DFE58E003A8FFF7B4FE28B98C
:1056D00053E000BF05F10800FEF738FE0F200790E9
:1056E00003A80A90089401F033FFDFF8DC69316801
:1056F0000020486407A9204601F072FE306890F847
:105700005400002839D06869022833DA2869401C1F
:105710002861FFF79BFC68B3306890F854100029AB
:10572000D8D1806CFDF7F3F8029005A80299082201
:10573000FDF7E2F902A8FDF7FBF8EE6DB6B102E065
:1057400000A8FDF7F5F83046FDF7E1F8009090F875
:105750002800800707D5009905A8FDF708FA0098EA
:105760008669002EECD100A8FDF7E2F805A8FEF747
:10577000EDFDB3E76869401E68612F2195F83000A0
:10578000401E85F83000204601F0DFFE0CB070BDF1
:1057900088B601202DE9F04F87B08046FDF7B7F8B5
:1057A000009090F82800800740F192800098DFF880
:1057B0001C99C569DFF818A9494CDFF818B9002D04
:1057C00000F086802846FDF7A2F8019090F82800A6
:1057D00000F00300032873D1009800F1080101983C
:1057E000FDF76EF900286BD0009904A80831082253
:1057F000FDF782F900A8FDF79BF801A8FDF798F8DE
:105800002068806CFDF783F803902846FDF77FF849
:105810000290014603980830FDF752F900283BD06A
:105820002068C66C076D0398029900F1080201F127
:10583000080001F045FD03A8FDF77AF80299CBF8BE
:105840005C502068B1F90010C1640299B1F90210EE
:10585000016502A8FDF76CF82846FDF750F8806A4C
:10586000C0034CBF51464946284688470020CBF824
:105870005C002068C66407652846FDF740F8019083
:105880002846FFF787FF2846FDF739F80190404684
:10589000FDF735F8009005E003A8FDF749F802A8E8
:1058A000FDF746F84046FDF732F800902846FDF730
:1058B0002EF8019004A9009808300822FDF71CF981
:1058C0000198056A01A8FDF733F8002D7FF47AAF3F
:1058D00000A8FDF72DF807B0BDE8F08F9F3F3F000F
:1058E000840000202DE9F04F89B00546FDF70FF840
:1058F000059040F60101806A084001280ED005A8F5
:10590000FDF716F82846FCF7FAFF806AC0034CBF83
:10591000DFF8BC17DFF8B41728468847DFF8B4472C
:10592000A06D002800F008812846FFF733FF2846C5
:10593000FCF7E5FF9F4E8169DFF89097DFF89087CD
:1059400004910029056A00F0F780002D00F0EB803B
:105950002846FCF7D4FF90F8280000F00300032845
:1059600041D13068806CFCF7D2FF00902846FCF7EC
:10597000CEFF0190014600980830FDF7A1F860B312
:105980003068C76CD0F850A00098019900F1080267
:1059900001F1080001F094FC00A8FCF7C9FF01998F
:1059A000E5653068B1F90010C1640199B1F90210E0
:1059B000016501A8FCF7BCFF2846FCF7A0FF806A40
:1059C000C0034CBF41464946284688470020E06551
:1059D0003068C764C0F850A005E000A8FCF7A8FF35
:1059E00001A8FCF7A5FF2846FCF791FF029090F86C
:1059F0002800800740F18D800298C769002F00F0D1
:105A000088803846FCF783FF039090F8280000F068
:105A10000300032875D1029800F108010398FDF7EF
:105A20004FF800286DD0029906A808310822FDF72A
:105A300063F802A8FCF77CFF03A8FCF779FF306845
:105A4000806CFCF764FF01903846FCF760FF009023
:105A5000014601980830FDF733F800283DD0306842
:105A6000D0F84CA0D0F850B00198009900F108028D
:105A700001F1080001F024FC01A8FCF759FFE765DB
:105A800000993068B1F90010C1640099B1F90210B1
:105A9000016500A8FCF74CFF3846FCF730FF806A30
:105AA000C0034CBF41464946384688470020E06560
:105AB0003068C0F84CA0C0F850B03846FCF71FFF63
:105AC00003903846FFF766FE3846FCF718FF039050
:105AD0002846FCF714FF029005E001A8FCF728FF18
